:020000040800F2
:1000000000900020016A0008D9620008DF62000841
:1000100000000000000000000000000000000000E0
:10002000000000000000000000000000E562000881
:100030000000000000000000EF620008F962000804
:10004000516A000800000000516A0008516A000867
:10005000516A0008516A0008516A0008516A000894
:10006000000000000D630008516A0008516A000892
:1000700025630008516A0008516A0008000000006A
:10008000516A00083D63000855630008516A000882
:10009000516A0008516A0008516A0008516A000854
:1000A000516A0008516A0008516A00086D6300082F
:0800B000856300089D63000850
:1000B80010B5064C2378002B07D1054B002B02D036
:1000C800044800E000BF0123237010BD7002002027
:1000D8000000000068FC0008044B10B5002B03D09A
:1000E8000349044800E000BF10BDC04600000000FE
:1000F8007402002068FC00080023C25C0133002A57
:10010800FBD1581E7047000002B4714649084900E7
:10011800095C49008E4402BC7047C04603B471466E
:10012800490840004900095E49008E4403BC7047F5
:10013800002243088B4274D303098B425FD3030A1E
:100148008B4244D3030B8B4228D3030C8B420DD331
:10015800FF22090212BA030C8B4202D312120902BF
:1001680065D0030B8B4219D300E0090AC30B8B42FD
:1001780001D3CB03C01A5241830B8B4201D38B03AB
:10018800C01A5241430B8B4201D34B03C01A524150
:10019800030B8B4201D30B03C01A5241C30A8B4293
:1001A80001D3CB02C01A5241830A8B4201D38B027E
:1001B800C01A5241430A8B4201D34B02C01A524122
:1001C800030A8B4201D30B02C01A5241CDD2C30994
:1001D8008B4201D3CB01C01A524183098B4201D310
:1001E8008B01C01A524143098B4201D34B01C01AFB
:1001F800524103098B4201D30B01C01A5241C30873
:100208008B4201D3CB00C01A524183088B4201D3E1
:100218008B00C01A524143088B4201D34B00C01ACD
:100228005241411A00D20146524110467047FFE739
:1002380001B5002000F0F0F802BDC0460029F7D053
:1002480076E7704703460B437FD4002243088B426E
:1002580074D303098B425FD3030A8B4244D3030B45
:100268008B4228D3030C8B420DD3FF22090212BA0A
:10027800030C8B4202D31212090265D0030B8B4286
:1002880019D300E0090AC30B8B4201D3CB03C01A70
:100298005241830B8B4201D38B03C01A5241430B4B
:1002A8008B4201D34B03C01A5241030B8B4201D33B
:1002B8000B03C01A5241C30A8B4201D3CB02C01AA6
:1002C8005241830A8B4201D38B02C01A5241430A1E
:1002D8008B4201D34B02C01A5241030A8B4201D30D
:1002E8000B02C01A5241CDD2C3098B4201D3CB01B4
:1002F800C01A524183098B4201D38B01C01A524163
:1003080043098B4201D34B01C01A524103098B4266
:1003180001D30B01C01A5241C3088B4201D3CB0051
:10032800C01A524183088B4201D38B00C01A524134
:1003380043088B4201D34B00C01A5241411A00D2E4
:1003480001465241104670475DE0CA0F00D049424D
:10035800031000D34042534000229C4603098B42BD
:100368002DD3030A8B4212D3FC22890112BA030A45
:100378008B420CD3890192118B4208D389019211C7
:100388008B4204D389013AD0921100E08909C3094C
:100398008B4201D3CB01C01A524183098B4201D34E
:1003A8008B01C01A524143098B4201D34B01C01A39
:1003B800524103098B4201D30B01C01A5241C308B1
:1003C8008B4201D3CB00C01A524183088B4201D320
:1003D8008B00C01A5241D9D243088B4201D34B003B
:1003E800C01A5241411A00D20146634652415B107D
:1003F800104601D34042002B00D54942704763465E
:100408005B1000D3404201B5002000F005F802BDA2
:100418000029F8D016E770477047C0468446100098
:1004280062468C461900634600E0C0461FB501F0DD
:10043800C5FA002801D40021C8421FBD10B501F03B
:1004480015FA4042013010BD10B501F0B7FA002886
:1004580001DB002010BD012010BDC04610B501F021
:10046800ADFA002801DD002010BD012010BDC046F6
:1004780010B501F03DFA002801DC002010BD012074
:1004880010BDC04610B501F033FA002801DA00208B
:1004980010BD012010BDC046844608006146FFE734
:1004A8001FB500F0B7F9002801D40021C8421FBDCC
:1004B80010B500F043F94042013010BD10B500F00E
:1004C800A9F9002801DB002010BD012010BDC0469D
:1004D80010B500F09FF9002801DD002010BD0120B3
:1004E80010BDC04610B500F04FF9002801DC00200F
:1004F80010BD012010BDC04610B500F045F9002818
:1005080001DA002010BD012010BDC046F0B54F46ED
:100518004646D6464502C0B547000C1C6D0A3F0E3C
:10052800C60F002F00D170E0FF2F00D175E0EB005F
:100538008025ED041D43002399469A467F3F6002BB
:10054800430A984663001B0EE40F002B4ED0FF2B86
:1005580046D04246D0008022D20402439046002270
:100568007F3B3100FF1A4B466140C9B213430F2B42
:1005780000D9B5E06E489B00C3589F4600239846B3
:100588002600454692465346022B00D189E0032BAC
:1005980000D19EE0012B18D03B007F33002B69DD92
:1005A8006A0704D00F222A40042A00D004352A0101
:1005B80003D5604B1D403B008033FE2B00DD70E00F
:1005C800AD016D0AD8B202E00E0000200025C0057A
:1005D8002843F6073043E0BCBA46B146A846F0BD0A
:1005E8004346002B3FD10222FF3F03E04346002B46
:1005F8002DD1012231004B466140C9B213430F2B64
:1006080034D84D489B00C3589F46002D13D104236E
:100618009946033B00279A4691E7002D05D1082308
:100628009946063BFF279A4689E70C239946093BDA
:10063800FF279A4683E7280002F09CF97627431F94
:100648009D4000237F4299469A463F1A77E74046E5
:1006580002F090F94246431F9A4076235B42904647
:100668001B1A00227DE7FF2303227AE70E00FF20F2
:100678000025ACE70120C01A1B28A6DC9E372A00FB
:10068800BD40C2406B1E9D4115436B0704D00F232C
:100698002B40042B00D004356B0144D501200025E4
:1006A80095E7FF20002592E780250026FF20ED032F
:1006B8008DE7002398468020C003054209D04346B1
:1006C800034206D1454605436D022600FF206D0A08
:1006D8007DE78020C00305436D02FF206D0A76E7A1
:1006E80042466B015001834219D21B220025013F6B
:1006F80001261C006D005B00002C01DB984201D82C
:100708001B1A3543013A002AF3D15A1E93411D435F
:100718003B007F330E00002B00DD41E7AAE71A22D9
:1007280001251B1AE4E7AD0100206D0A4FE7C0461A
:10073800FCFE0008FFFFFFF73CFF000870B5420011
:1007480045024E024C00C30F6D0A0120120E760AB4
:10075800240EC90FFF2A06D0FF2C03D0A24201D1D4
:10076800B54206D070BD002DFCD1FF2CFAD1002E69
:10077800F8D18B4206D00120002AF3D12800431E6D
:100788009841EFE70020EDE770B5420045024E02C0
:100798004C00C30F6D0A120E760A240EC80FFF2AEA
:1007A8001BD0FF2C0ED0002A1BD1002C01D1002E0B
:1007B8001CD0002D0CD083421CD00221581E0840AA
:1007C800013870BD002E22D1002AF4D1002DF2D1BB
:1007D8000028F6D101204042F3E7002D17D1FF2C65
:1007E800F0D0002CE7D1002EE5D1E6E70020002D5F
:1007F800E7D0E2E7A24205DCEADBB54202D8E7D35C
:100808000020DEE74342584140000138D9E7022082
:100818004042D6E770B5420045024E024C00C30F75
:100828006D0A120E760A240EC80FFF2A0BD0FF2C71
:100838000DD0002A1FD1002C16D1002E14D1002073
:10084800002D10D009E0002D0CD1FF2C13D1002E63
:1008580008D1002A08D0834212D00221581E08402D
:10086800013800E0022070BD002DF4D10028FAD133
:1008780001204042F7E7002CEDD1002EEBD1ECE748
:10088800A24205DCF2DBB54202D8EFD30020EAE74A
:100898004342584140000138E5E7C046F0B54F46AD
:1008A8004646D64644024500C0B5640A0F1C2D0EC4
:1008B800C60F002D00D18DE0FF2D00D192E000235E
:1008C800802099469A46E400C00404437F3D78029C
:1008D800430A98467B001B0EFF0F002B00D170E0E7
:1008E800FF2B00D186E04246D00080227F3BED18E6
:1008F8000023D204024390469C4631004B4679407F
:10090800681C0F2B1CD8764A9B00D3589F46390089
:100918004446E2465346022B0FD0032B00D1D7E0C2
:10092800012B37D100200024C0052043C907084304
:10093800E0BCBA46B146A846F0BDFF200024F3E764
:10094800260C2404220C44462404240C4346270085
:100958001B0C574374435A435E4312193B0C9B18B4
:100968009C4203D980225202944666443F041A04EA
:100978003F0CD2199401671EBC411B0C920E9B19A7
:1009880014439B011C431B0100D49BE00123620814
:100998001C40144302007F32002A64DD630704D040
:1009A8000F232340042B00D00434230103D5020075
:1009B8004C4B80321C40FE2ABFDCA401640AD0B232
:1009C800B2E74346002B3DD14A4601331A439146CC
:1009D8009C4692E7002C29D104239946033B002525
:1009E8009A4674E7002C1BD108239946063BFF253D
:1009F8009A466CE74346FF35002B0BD102234A4643
:100A08001A4391469C4678E753463100022B00D0A2
:100A180083E792E703234A461A4391469C466CE7CC
:100A28000C239946093BFF259A4650E7200001F020
:100A3800A1FF7625431F9C4000236D4299469A46A4
:100A48002D1A44E7404601F095FF4246431F9A405D
:100A580000232D1A90469C46763D4EE780240021BF
:100A6800FF20E40360E701239B1A1B2B00DD59E7F5
:100A780022009E30DA4084401300621E94411C43D9
:100A8800630704D00F232340042B00D004346301F0
:100A98001AD50120002447E78020C003044209D06A
:100AA8004346034206D14446044364023900FF200A
:100AB800640A39E78020C003044364023100FF2040
:100AC800640A31E7280065E7A4010020640A2BE7DF
:100AD8008020C00304436402FF20640A24E7C04660
:100AE8007CFF0008FFFFFFF7F8B5002813D0C317F5
:100AF800C6185E40C40F300001F03CFF9E2305007D
:100B08001B1A962B0FDC082801DD083DAE40760243
:100B1800760AD8B202E0002400200026C00530433F
:100B2800E4072043F8BD992B0CDD05223100121A89
:100B3800D1400A00010030001B318840411E884125
:100B480002431600052D12DC31000D4F39407207A3
:100B580009D00F203040042805D004314A0102D5BD
:100B68009F2339405B1B89014E0AD8B2D6E76A1F1A
:100B780096403100024F39407207F4D0E9E7C04689
:100B8800FFFFFFFB70B5051E0ED001F0F3FE9E239C
:100B980004001B1A962B0CDC082801DD083CA54034
:100BA8006D026D0AD8B201E000200025C005284377
:100BB80070BD992B09DD020029001B3291404A1EA5
:100BC80091410522121AD5400D43052C12DC29004B
:100BD8000C4E31406A0709D00F202840042805D060
:100BE80004314A0102D59F2331401B1B89014D0A5C
:100BF800D8B2DBE7621F95402900024E31406A07F0
:100C0800F4D0E9E7FFFFFFFBF0B54F464646D6466E
:100C18000D000400C0B51F0011002803620F400A30
:100C280010437A00520DE3003C039146640AFA0F20
:100C38004F0F6E0027439246B846760DED0FC90058
:100C4800954200D199E04C46341BA446002C00DCA8
:100C58007CE04A46002A00D1B8E0C54A964200D155
:100C68001CE180223C0012041443A0466246382A44
:100C780000DD61E11F2A00DDCCE164462022121B61
:100C8800444694400F00A14664469140E7404C46D4
:100C98004A1E91413C43424621436446E240801A41
:100CA8005C1AA3429B415F42C71B3B0200D4D0E0C1
:100CB8007F027F0A002F00D1FFE0380001F05AFEC2
:100CC80001000839202322005B1A8F40DA408C404B
:100CD8001743B14200DAFFE0891B4B1C1F2B00DDD4
:100CE800A8E020223900D21A200094409140D84030
:100CF800621E9441DF40002601430C43630709D07C
:100D08000F232340042B05D0231DA342A441644292
:100D18003F191C003B0200D49EE0954B01369E42D1
:100D280000D1B7E0934AE40817407B0771057F02BA
:100D380023433F0B4A0D12053A43ED072A43180097
:100D48001100E0BCBA46B146A846F0BD002C4BD015
:100D58004C46A41BA446002E00D023E104001C43EB
:100D680000D1AFE16246541E012A00D115E2804D40
:100D7800AC4500D1C8E1A4461BE14A46B21A9446E4
:100D8800002A00DCACE04A46002A43D0784A964262
:100D980000D1AFE180223C0012041443A046624611
:100DA800382A67DC1F2A00DC5FE14746203AD74033
:100DB8006246202A05D064464022121B44469440CD
:100DC80021434A1E91410C003C4357E03A000A4334
:100DD80000D105E12200013A012C00D182E1644CE6
:100DE800A4455BD0944641E7634C771C274200D06A
:100DF800C4E004001C43002E00D069E1002C00D19F
:100E0800BFE144460C4300D0D0E14207DB0813435E
:100E1800C00829E03A000A4300D170E162466446FE
:100E2800013A012C00D1E0E0514CA44500D161E128
:100E38009446B4E73A001F39CA401100202B03D06A
:100E48004022D31A9F403C43631E9C410027002642
:100E58000C43630700D053E7B446E4087B072343F9
:100E6800F808434A94451DD06246070352053F0BD4
:100E7800520D60E744460C43621E9441E4189C42BC
:100E88009B415F423F183B02E3D5394B01369E42F6
:100E980000D0B5E03200002700234CE74207DB080A
:100EA8001343C0081A00024300D1E1E180273F0341
:100EB80007433F032E4A3F0B3DE7200001F05AFD50
:100EC800010018311F2900DCFCE60838844027009F
:100ED8000024B14200DBFFE6264A761A17400DE7E8
:100EE800002A2FD04A46921B9446002E00D1ADE02E
:100EF8001F4A914500D10FE1802212041043624637
:100F0800382A00DD0FE11F2A00DD80E16446202237
:100F18001E00121B6746040093409440FE405A1E70
:100F28009341F84034431C43804464188C42BF41C9
:100F38007F424E464744A6E742460A4311004A1EEE
:100F48009141ADE60C4C721C224200D0A1E0020097
:100F58001A43002E00D0FAE0002A00D145E13A00F9
:100F68000A4300D046E14207DB081343C0087BE789
:100F7800FF070000FFFF7FFFFE07000047465C1ADF
:100F8800C21BA342BF417F42B94617004A46BF1A57
:100F98003A0200D58DE023003B4300D08AE60020CA
:100FA800002561E7B44CA14500D1ADE080242404BC
:100FB80020436446382C3DDC62461F2C00DDB7E038
:100FC80020251E002D1B0400AB40AC40D640D0406D
:100FD80042465D1EAB413443121A904623432CE02F
:100FE8004207DB081343C0083BE75C189C429B415F
:100FF80040445B42C71801263B0200D429E7022679
:101008009E4A63081740012214401C43FB071C43F7
:101018007F0873E64446203AD4406246202A05D029
:1010280067464022D21B4746974039434A1E9141A2
:10103800214335E60343581E8341CC1AA142BF41E0
:1010480043467F4255464E46DF1B2EE602001A43B2
:1010580000D1BDE062466446013A012C00D1E5E0CA
:10106800854CA44558D0944649E764462022121B73
:10107800444694400F00A14664469140E7404C46E0
:101088004A1E91413C4342460C436146CA4080187F
:10109800F4E6794CA24200D1FDE6591899429B41E9
:1010A80040445F42C719FC07490816000C437F08F3
:1010B800CFE6CC1AA142BF4143467F42181A554693
:1010C800C71BF7E5C9087B0755460B43F808C8E670
:1010D800002C00D081E043460B4315D18020002529
:1010E8000003E3E65C1AA3429B41C71B5B4201264F
:1010F800FF1ADAE54207DB081343C008D2E64207C5
:10110800DB081343C008ACE643464246C9085B0700
:1011180055460B43D008C5E6434642465B07C90817
:101128000B43D008BEE603431C00631E9C41FCE64B
:101138000200203CE24014006246202A03D04025E9
:10114800AD1AA8400343581E8341234375E7002A7C
:10115800E2D03A000A43CDD04207DB08134380228D
:10116800C0081203104206D0FC08144203D1200024
:10117800CB087A0713435A0FDB005207DB081343E7
:1011880090E643460B4300D109E743464246C90867
:101198005B0755460B43D00866E6CC1AA142894145
:1011A8003F1A4942554601267F1A7EE542465C1A97
:1011B800871AA34292415242BF1A3A023DD5CC1A2D
:1011C800A1428941434649421F1A55467F1A95E56F
:1011D8007B07C9080B43F80843E64446DB080C4381
:1011E80030D142071343C0085CE67B07C9080B43AC
:1011F800F80839E65C189C429B4140445B42C7189A
:101208003B0200D425E61D4B01261F4021E60400C1
:10121800203AD4406246202A04D040226646921BD7
:10122800904003435A1E93411C437EE65C188C424F
:101238008941404449424718DDE623003B4300D139
:10124800ADE606E6440723438024C0082403204271
:1012580008D04246D608264204D155463000CB086D
:1012680051070B435A0FDB00DB085207134319E6FB
:101278000023014A1F005EE5FF070000FFFF7FFF14
:10128800F0B557464E464546DE46E0B58146050070
:101298000C03480092461F0085B0240B400DCE0F6A
:1012A800002800D156E1D44B984200D172E16B0F6F
:1012B800E4001C4380231B0423439846CF4BED00D6
:1012C8009B4600239946834400933C037B00504689
:1012D800240B5B0DFF0F002B00D11FE1C64A934280
:1012E80000D162E1C549420F8C46E40059461443D7
:1012F800802263441204CB1A14439B46C200002088
:1013080033007B409A464B460F2B27D8BC499B009D
:10131800CB589F46B246009B022B16D0032B00D118
:101328008EE2012B00D0D9E000230024002552468C
:101338001B052343D20713432800190005B0F0BC4E
:10134800BB46B246A946A046F0BD00240025AA4BDC
:10135800EDE7BA46A04615000090DCE7444500D208
:10136800C7E100D1C2E101235B429C462E00404602
:101378000025E3442302140E1C431B0C9946230446
:101388001F0C1202494600920197FEF757FF020010
:101398007A430B04310C804619438A4207D901234A
:1013A8005B429C460919E0448C4200D807E2881A3F
:1013B8004946FEF743FF09048C4631046646019A04
:1013C800090C4243030031438A4204D90919013BFD
:1013D8008C4200D8EDE1881A424612041A4390461E
:1013E8004146009B0E041B0C1F000293009B360C09
:1013F8001B04190C0B007343120C7E4303915143D9
:101408007A431F0CBC4676186644B14203D9802142
:1014180049028C466244310C8A1831041E04360C89
:101428008E19904202D312D1B54210D24346591EAA
:10143800009B9C4665441F009D429B415B421B19D3
:10144800C018844200D2A0E100D19BE18846AE1BBF
:10145800B542AD41801A6D42401B844200D1D5E1AE
:101468004946FEF7EBFE019A0B044243310C050096
:1014780019438A4200D96CE1881A4946FEF7DEFE14
:10148800019A360442430904360C03000E43B24263
:1014980000D953E10398B61A02002D041D43029F98
:1014A8002B041B0C5A437B439C46290C4843130CC2
:1014B800844463447943984203D980204002844697
:1014C8006144180C12041B04120C41189B188E421C
:1014D80000D2FFE000D1FAE001231D43494A5A44F3
:1014E800002A00DCAAE06B0700D03DE1ED08434686
:1014F800DB0106D54246444B1A4090468022D20072
:101508005A44424B9A4200DD1FE743465B071D439E
:10151800434652055C02240B530D08E7524622430A
:1015280000D17BE0002C00D1FAE0200001F022FA83
:1015380002000B3A1D2301009B1A52460839DA4073
:101548008C40144352468A40314B58449B4683444E
:101558000020D5E64B462343984644D0002C00D1C2
:10156800CEE0200001F006FA010002000B391D232D
:101578005B1A49461000D940083884400B004D4694
:101588002343984685402348831A9B46002399465F
:1015980000939AE64B46234398461DD10823994663
:1015A800063B0025834600938FE65246224309D125
:1015B800022349461943184B89469C4600240220B9
:1015C800E3449DE603234A461A43134B91469C463F
:1015D80052460320E34493E60C239946093BA04670
:1015E8008346009371E60423994600239B46013302
:1015F8000025009369E6C046FF07000001FCFFFFD5
:10160800BCFF0008FF030000FFFFFFFEFE0700000D
:10161800F30300000DFCFFFF01F8FFFF494601231B
:1016280019438946002401206AE6002380249A464B
:1016380000258A4B24037AE601256D4201239B1A73
:10164800382B00DD70E61F2B00DCBFE01F2149426C
:101658008A1A4146D1400A00202B04D04146804BCB
:101668005B4499400D436B1E9D4107232A431D008F
:1016780000241540134200D1D4E00F21002311406B
:10168800042900D1CBE0111D9142924152429B188E
:101698000A00190200D4C2E001230024002546E60E
:1016A800802341461B03194208D01C4206D11C4323
:1016B8002403BA461500694B240B38E680244346B8
:1016C80024031C432403B246644B240B2FE6002B4F
:1016D80000D103E7A619681EA64200D28DE08E420B
:1016E80000D2A3E000D1B3E00500F5E6AA4200D994
:1016F80039E64346DE0758086B081E43ED0739E60E
:10170800484601F037F901000200153120321C2942
:1017180000DC2CE74B46083883400025984632E722
:1017280001F028F903001A00153220301C2A00DCC9
:1017380000E75446083B00229C4005E73619013B68
:10174800B44200D9A6E6B24200D8A3E6831E3619F1
:10175800A0E60919013D8C4200D98DE68A4200D8DD
:101768008AE6851E091987E60F232B40042B00D132
:10177800BCE605235B42AB429B4104355B42ED0866
:101788009844B4E6AF4200D960E6824204D800D05B
:101798005CE6AE4200D859E602235B429C46009BB9
:1017A800E0449C4665449D429B415B421B19C0181E
:1017B8004DE68A4200D80EE6831E09190BE68A42D6
:1017C80000D8F4E5831E98460919F0E52549280054
:1017D80059448D4042468A40691E8D414146D84051
:1017E800D94002432A430B00510700D151E70F218A
:1017F8001140042900D046E74BE705008E4200D08F
:101808006AE6009A934200D066E667E6164A5A44AA
:10181800002A00DC10E701230025984467E65D07ED
:101828005B021C0BD2080023154380E50098023D9B
:1018380042008242BF417F423C1936190092DDE7DF
:101848008024434624031C432403044B240B6EE5E5
:10185800009A9A42EAD30500D3E7C046FF07000082
:101868003E0400001E040000FF030000F0B54E46D1
:101878004546DE4657469046E0B517001A03120B58
:101888000500844619480E034C0091465A00DB0FA8
:101898009B46360B640DC90F520D844219D0824203
:1018A80010D0012094420ED14E450CD10120C445E0
:1018B80009D1594517D0002C05D130002843431EC3
:1018C800984100E00120F0BCBB46B246A946A046BC
:1018D800F0BD330001202B43F5D1A242F3D14B4692
:1018E8003B43F0D1E2E70020EDE7C046FF070000E8
:1018F800F0B54746CE460400180016001B031B0B24
:101908002D4D4A00994680B543000F03A446B046C2
:101918003F0B520DC90F5B0DC00FAA4221D0AB423D
:1019280013D0002A22D13C43002B02D14D462E432E
:1019380022D0002C10D0814222D002200139084048
:101948000138C0BCB946B046F0BD4D462E4329D13A
:10195800002AF0D13C43EED10028F2D101204042C8
:10196800EFE73D0025431DD19342EED0002BE2D195
:101978004C462643DFD1E0E70020002CE1D0DCE72D
:101988009A420ADCE8DB4F45D7D80ED000204F45F5
:10199800D7D20029E2D00800D3E74342584140009B
:1019A8000138CEE702204042CBE7C445C5D8002025
:1019B800C445C6D2EDE7C046FF070000F0B547466C
:1019C800CE460400180016001B031B0B2C4D4A00C2
:1019D800994680B543000F03A446B0463F0B520D0D
:1019E800C90F5B0DC00FAA420DD0AB4210D0002A20
:1019F80027D13C43002B11D14D462E430ED1002058
:101A0800002C15D00EE03D00254310D1934218D18B
:101A18004D462E430BD1002A02D13C43002C0BD05B
:101A2800814214D0022001390840013800E0022028
:101A3800C0BCB946B046F0BD0028F9D101204042EB
:101A4800F6E7002BECD14C462643E9D1EAE79A4267
:101A580004DD4342584140000138E9E79A42EBDB94
:101A68004F45DFD806D000204F45E1D20029E5D008
:101A78000800DDE7C445D5D80020C445D8D2F5E72D
:101A8800FF070000F0B557464E464546DE46E0B52E
:101A980098460C034B000600924687B0240B5B0D5A
:101AA800CF0F002B00D15CE1D94A934200D175E1F8
:101AB800420FE4001443802212041443D54AC5009F
:101AC800944663440093002399469B464346424606
:101AD8001E03D20F5B0050469046360B5B0D00D1BB
:101AE80020E1CB4A934200D162E1CA49420F8C46B9
:101AF80000996344F6008C46164380229C441204E5
:101B080063461643C2000020009300994346013102
:101B18008C4649467B4001930F2926D8BE4B890045
:101B280059588F46434601933400150083465B4657
:101B3800022B16D0032B00D103E2012B00D0CDE0FD
:101B4800002200240025019B12052243DB071A43CB
:101B58002800110007B0F0BCBB46B246A946A04613
:101B6800F0BD00240025AA4AEDE7280C2D042D0C11
:101B78002B00110C1204120C5343984613002F002B
:101B8800434399464F434F44BB4647460B003F0CDF
:101B9800BA464343DA440293D14504D980277F02E9
:101BA800B9464B44029353461B0C9B4653461F04AD
:101BB80043461B041B0C98463B0043440493330CD8
:101BC8003604360C9846330043439946434643430C
:101BD8002F009A46434677435D43380C4D444519D8
:101BE800A94503D980235B029946CA443F04280CBF
:101BF8003F0C2D04ED19270C2404240C03002000AD
:101C080050437A4391463A0053440593030C9A464D
:101C18004A43614349445144AB44894503D980232D
:101C28005B0299464A4400040B0C000C090409188D
:101C380020009946434670435C437E435F43030C50
:101C48009846A41944444A440397A64204D98023D9
:101C58005B029846474403972304029E9A46059BD5
:101C68005E449846AE42AD4176188E4289410004E2
:101C7800000C504440446D424719B84693464942C7
:101C88008946C344D94498428041A845AD4193450B
:101C98009241894589416D4240422843240C524271
:101CA80049420A43039B00198018C7184B46DC0DAC
:101CB800049B75021D436A1E95414B46F60D7F0233
:101CC80035435A023C431543FB0100D41CE1012172
:101CD8006A080D401543E207154364084F496144FB
:101CE800002900DCB0E06B0709D00F222A40042A43
:101CF80005D02A1DAA42AD416D4264191500E301C1
:101D080004D58021464AC90014406144454A91429D
:101D180000DD26E76207ED08640249051543240B38
:101D28004A0D10E75246324300D17FE0002E00D121
:101D3800DCE0300000F01EFE02000B3A1D2301001B
:101D48009B1A52460839DA408E40164352468A405A
:101D5800009B3549181A03008C4663440020009301
:101D6800D3E6250005434AD0002C00D1B0E020007E
:101D780000F000FE010002000B391D2310005B1A61
:101D88003100350008388440D94085400C43264846
:101D9800831A0093002399469B4697E6050025433E
:101DA80026D1082200930223002491469B468DE603
:101DB8005246009B324310D1154900268C46634495
:101DC8004946009302231943894602209DE65B4653
:101DD8000197022B00D0ADE6C3E60D4A03209446D6
:101DE80063444A46009303231A43914652468CE6BD
:101DF8000C2200930323050091469B4666E60423C4
:101E0800994600230093013300249B465EE6C046B2
:101E1800FF07000001FCFFFFFCFF0008FF030000B4
:101E2800FFFFFFFEFE0700000DFCFFFF49460123F0
:101E3800194389460026012067E6002380240025EF
:101E4800434A019324037EE60120401A382800DD26
:101E580076E61F285BDD1F2223005242511ACB4031
:101E68001900202803D03B4A6244944025436A1E47
:101E780095412A000A4307210D000024154011420C
:101E88005BD00F2100241140042953D0111D914229
:101E980092415242A4180A0023024BD50122002481
:101EA800002550E680231B031C4209D01E4207D19F
:101EB80033431C0343461500240B254A019342E68D
:101EC8008022120314432403214A240B01973AE683
:101ED80000F050FD01000200153120321C2900DC01
:101EE8004BE7340008380025844050E700F042FDF5
:101EF80003001A00153220301C2A00DC1EE7564663
:101F0800083B00229E4023E7009B9C46E6E61249D8
:101F1800220061442E008D408A40C640691E8D41D2
:101F280032432A43C4405307B6D00F211140042935
:101F3800ACD1B1E765076402240BD208154300222F
:101F480001E68022120314432403014A240BFAE514
:101F5800FF0700003E0400001E040000F8B55746C5
:101F68004E464546DE46E0B51E0017004A000B0304
:101F7800520D5B0A9046420F1A43CD0FCD4C3103E8
:101F8800C300944670007A0F490AFF009A46B94682
:101F9800400DF60F1143A04200D1B1E00122564096
:101FA800B346B54200D188E04246121A002A00DC46
:101FB800AEE0002800D1C1E0BE48804500D151E123
:101FC800802000040143382A00DD7BE11F2A00DD60
:101FD800EEE120203E00801A0C00D640D140874018
:101FE80062468440521A781E8741944634432743F8
:101FF800DC1BA3429B4162465B42D31A99464B467F
:102008001B0200D418E14B465802430A99464B4636
:10201800002B00D137E1484600F0ACFC010008393C
:102028002023220048465B1ADA4088408C40434609
:102038001043884500DD36E1C91A4B1C1F2B00DD13
:10204800EAE020222600D21A01009440DE40D8405F
:1020580000239140621E94418146984631430C43C7
:10206800630709D00F232340042B05D0231DA34267
:10207800A4416442A1441C004B461B0200D4DEE08C
:1020880041468C4B0131994200D1E7E04B468A48E2
:10209800E4080340180049055B07400223434A0D42
:1020A800040B1205ED0722432A4318001100F0BC67
:1020B800BB46B246A946A046F8BD4246121A002AB7
:1020C80052DD002800D19CE0A04500D1CAE0802064
:1020D80000040143382A00DD49E11F2A00DC97E1AA
:1020E80010000E002038C640202A04D04020821A52
:1020F80091400F43B9464C46621E944134433AE13D
:102108000A003A4328D0B346B5422BD06B4A424422
:10211800002A5DD042464446821A002C00D0F5E0E1
:1021280065461D4300D19CE1551E012A00D1FBE103
:10213800604CA24200D1BDE12A00F0E0080038431B
:1021480000D1C3E0501E012A00D1A8E1594CA24297
:1021580000D187E0020036E701225640B346B54277
:1021680000D021E7554A4244002A00D1B5E0424652
:102178004446821A002C00D138E14E4EB04200D1BC
:10218800DEE18026644636043443A446382A00DD5E
:1021980096E11F2A00DD24E22026B41AA2466446EE
:1021A8005646B440A1461C004E46D440264334004F
:1021B8005646B3405E1EB3411C436346D340C9181C
:1021C800E419BC42BF417F42B94680468944D8E001
:1021D80040463B4C0130204200D0B4E04046002845
:1021E80000D044E16046184300D190E1080038432C
:1021F80000D0AAE16146DB0849070B436146CC08D9
:1022080027E00800384361D0501E012A00D139E187
:10221800A24227D002005DE702001F39CA40110020
:10222800202B03D04022D31A98400443631E9C41BC
:102238000023994698460C43630700D012E74B46A3
:102248004A46E4085B072343D408424619498A42B0
:102258000ED024035205240B520D22E70A00002455
:1022680000231EE7DB086246520713436246D40880
:102278001A00224300D1FCE18022120314432403F4
:102288000C4A240B0DE7200000F074FB0100183104
:102298001F2900DCC4E60838844043462000002497
:1022A800884500DCC8E6044A5B1A10409846814617
:1022B800D6E6C046FF070000FFFF7FFF01F8FFFFDB
:1022C800FE0700000F437A1E974191E66146DB083E
:1022D80049070B436146CC08B8E74046D34C013068
:1022E800204200D0A2E04046002800D001E160462C
:1022F800184300D15EE10800384300D05FE1614631
:10230800DB0849070B436146CC08A2E7C84DA84241
:1023180000D1CFE0802564462D042C43A446382AFA
:1023280056DC1F2A00DDD1E020251E00AD1A6446C8
:10233800AB40AC40D6405D1EAB41344323436446BA
:10234800D440091B49E06046DC1B461AA342804181
:102358004042814630004E46801B8146000276D4BA
:102368004B46234300D052E60024002571E7394349
:102378000C00621E9441E4189C429B415B426344FA
:1023880099464B461B0200D456E701239C46A84BAE
:10239800E044984538D04B46A6480122034018002F
:1023A800630814401C43C3071C434308994657E677
:1023B80010000E002038C640202A04D04020821A7F
:1023C80091400F43B9464F467A1E974137430FE66F
:1023D80062461A4313005A1E9341FC1AA742BF4192
:1023E8007F42CB1B99465D46804608E666461E43FB
:1023F80000D1BEE0561E012A00D109E18C4CA24250
:1024080000D119E13200C1E642460024002348E623
:1024180020200C00801A3E0087408440D640781E59
:102428008741D14034433C438C44A4E7804A9042DE
:1024380000D1E9E0DF199F429B4161445B42C91822
:10244800CC077F084B08994680463C43F4E6FC1AC3
:10245800A742BF4163467F42C91ACB1B99465D46D6
:10246800D5E5FF084B075D463B43CC08EEE66246E0
:102478001A4300D082E00B003B431BD18024002587
:102488002403F9E6DC199C429B41614489465B427E
:1024980099444B461B0244D401239846CCE6DC1BE6
:1024A8006246A3429B41511A5B42CB1A99460123CB
:1024B8009846A4E5FF084B075D463B43CC08D7E6A2
:1024C80062461A431400631E9C4179E6150064466F
:1024D800203DEC40A046202A05D040256446AA1A93
:1024E800944023439A465446631E9C4143462343E3
:1024F80073E762461A4323D00A003A4300D0A0E0AB
:102508006246DB08520713436246D408B0E60B0064
:102518003B4300D128E7FF084B075D463B43CC0807
:1025280097E60223984636E7FC1AA742BF4163465E
:102538007F42C91ACB1B994601235D4698465EE542
:102548004B07FF083B43CC0892E6DC1B6046A342DE
:10255800B641401A7642801B8146000260D5FC1ABB
:10256800A742BF4163467F42C91ACB1B99465D46C5
:1025780076E5FF084B073B43CC0867E60A00DB0813
:102588003A4300D16FE66246520713436246D408C5
:1025980080221203144207D0C808104204D15D46B5
:1025A8000400FB0849070B435A0FDB00DB085207FE
:1025B80013435DE64B07FF083B43CC0849E6DC19AB
:1025C8009C429B41614489465B4299444B461B02AD
:1025D80000D431E64A46174B1A40012391469846E3
:1025E8002AE616006446203EF440A046202A05D07C
:1025F80040266446B21A944023439A465446631EC2
:102608009C4143461C43DBE502000024002348E5C7
:10261800DC19BC42BF41614489467F42B94438E76E
:102628004B46234300D19FE606E6C046FE0700005E
:10263800FF070000FFFF7FFFFF084B073B43CC0865
:1026480016E66246DB08520713436246D408802226
:102658001203144207D0C808104204D15D46040092
:10266800FB0849070B435A0FDB005207DB081343EB
:10267800FEE50023014A1C0013E5C046FF070000E1
:1026880070B505000C481C0316005B000A034900DE
:10269800120B490D240B5B0D814208D0064A00201D
:1026A800934203D120003043431E984170BD01205E
:1026B8002A43FBD1F2E7C046FF0700000A0030B505
:1026C800134C530009030500090B00205B0DD20FC2
:1026D800A34204DD0F48834202DD0F4BD01830BD02
:1026E8008020400301430D48C01A1F2808DD0C480C
:1026F800C31AD9400B005842002AF0D11800EEE75F
:10270800084CC540A446634499400B002B43F2E7AC
:10271800FE0300001D040000FFFFFF7F33040000DC
:1027280013040000EDFBFFFF70B5002816D0C31797
:10273800C5185D40C40F280000F01CF9114A121A90
:102748000A2816DC03002E0015339E400B23181AA6
:10275800C54052052D032D0B530D03E00024002323
:10276800002500261B052B43E407234330001900EE
:1027780070BD0B38854052052D0300262D0B530DD7
:10278800F0E7C0461E04000010B5041E10D000F08B
:10279800F1F80F4B1B1A0A2811DC0B222100121A20
:1027A800D14015300A035B058440120B5B0D01E034
:1027B800002300221B0513432000190010BD22002E
:1027C8000B3882405B0512030024120B5B0DF1E706
:1027D8001E04000070B543004602C40FFE201B0E05
:1027E800591C750A08420CD0E022920094466D07E5
:1027F800360B63441B053343E407234328001900C1
:1028080070BD002B14D1002D1BD0280000F0B2F8A9
:102818000A281CDC0B232E001B1ADE40030015338C
:102828009D400E4A3603121A5205360B530DE1E746
:10283800002D09D08022360B1203094B6D07164371
:10284800D8E700230026D5E70026054BD2E703008A
:102858000B3B9D402E000025E3E7C046890300009E
:10286800FF07000002004B00F0B55B0D0C033D4E66
:10287800640A400F5F1CC90F0443D50037420AD0D1
:1028880039481E18FE2E16DDFF200024C0052043FF
:10289800C9070843F0BD002B06D12C4326D00522DA
:1028A8009201540AD8B2F1E72543EDD08020C00345
:1028B8000443FF20EAE7002E1BDD9201531E9A41D4
:1028C800E4006D0F22432A43530748D00F231340D7
:1028D800042B00D004328023DB0413403FD0701C4B
:1028E800FE2ED1D09201540AC0B2CFE700200024B6
:1028F800CCE73200173222DB8020000420431E245C
:10290800A41B1F2C1DDD02225242961B0200F2401E
:102918001600202C04D0154A944663449840054379
:102928002A00531E9A41324300265307CED18024F1
:102938001300E404012023402242D3D1B0E700234E
:10294800ADE70B4A94462A00E24014002A0063448B
:102958009A409840551EAA4102432243E4E73300B7
:102968009EE7C046FE07000080FCFFFFA2FCFFFFB9
:1029780082FCFFFF1C2101231B04984201D3000C99
:1029880010391B0A984201D3000A08391B099842DA
:1029980001D30009043902A2105C40187047C046F0
:1029A8000403020201010101000000000000000010
:1029B80090B58BB000AF78600A00FB1C1A70272115
:1029C8007B18FA1C12781A707B681B69002B05D0DB
:1029D8007B681B697C189847030023702723FB1822
:1029E8001B78002B00D191E07B681B78072B00D95E
:1029F80080E09A008B4BD3181B689F467B680122A6
:102A08001A707B6814333221180000F039FB00F08B
:102A18001FFB02007B685A6277E07B68143318005A
:102A280000F058FB031E67D07B6802221A7063E02F
:102A38007B6803221A707B681433FA229200110013
:102A4800180000F01DFB7B68DB68002B56D02023A4
:102A5800FB1801221A707B68DB687A6810893A6A69
:102A6800002198474AE07B681433180000F032FBD5
:102A7800031E45D07B6804221A707B68DB68002B34
:102A88003ED01C23FB1804221A707B68DB687A6826
:102A98001089FA690021984732E07B6814331800DE
:102AA80000F018FB031E2DD17B6801221A707B6889
:102AB80014333221180000F0E3FA00F0C9FA0200DA
:102AC8007B685A621EE000F0C3FA02007B685B6A0A
:102AD800D21A7B685A607B68DB68002B14D07B684D
:102AE8005B68BB617B68DB687A681089BA69022118
:102AF800984709E0C04691E0C0468FE0C0468DE0A7
:102B0800C0468BE0C04689E0C04687E07B681B78FA
:102B1800033B042B00D978E09A00434BD3181B6879
:102B28009F467B6805221A707B681433322118008F
:102B380000F0A6FA72E07B681433180000F0CAFAB5
:102B4800031E66D07B6806221A707B685B780133A7
:102B5800DAB27B685A707B68DB68002B0AD01423D2
:102B6800FB1803221A707B68DB687A6810897A6917
:102B7800002198477B68DB68002B4AD07B685A782D
:102B88001023FB181A707B68DB687A6810893A6929
:102B9800012198473DE07B6809221A707B6814334D
:102BA800180000F0BDFA7B6800225A707B68DB6869
:102BB800002B30D00C23FB1805221A707B68DB68C9
:102BC8007A681089FA680021984724E07B68072210
:102BD8001A707B681433FA2252001100180000F0B2
:102BE8004FFA1BE07B681433180000F073FA031ED9
:102BF80013D07B6800221A707B681433180000F029
:102C08008FFA7B6800225A7007E07B6800221A70EE
:102C180004E0C04602E0C04600E0C046BD460BB036
:102C280090BDC0463C0001085C00010880B584B036
:102C380000AFF860B9607A60FB68BA685A62FB68EE
:102C48007A689A62C046BD4604B080BD80B582B03D
:102C580000AF786039607B685B6A002B28D07B689E
:102C680001221A703B68002B0AD07B6800225A7038
:102C78007B6814333A681100180000F001FA17E075
:102C88007B6802225A707B685B6A002098477B68E1
:102C98001433180000F044FA7B6800221A617B683C
:102CA8009B6A002B04D07B689B6A0021012098470F
:102CB800C046BD4602B080BD90B585B000AFF86093
:102CC8007A603B600B243B190A1C1A70FB685B6A2C
:102CD800002B44D03B191B78002B3BD07B68002B82
:102CE8003AD03A687B689A4238D9FB685B6A012017
:102CF8009847FB6803221A70FB6801225A70FA6829
:102D0800182308215B18DB191B7893703B191B7873
:102D18009AB2FB689A80FB680022DA80FB687A68BE
:102D28009A60FB683A68DA60FB6814331A00FB683B
:102D38009B681900100000F0A3F9FB6800221A61D3
:102D4800FB689B6A002B0AD0FB689B6A0021002065
:102D5800984704E0C04602E0C04600E0C046BD46D1
:102D680005B090BD80B584B000AF78607B685B6AC1
:102D7800002B00D10FE17B681B78002B04D07B6807
:102D88001B695A1C7B681A617B681B78032B5BD014
:102D980000DDF7E0012B02D0022B28D0F2E07B689F
:102DA8001433180000F096F9031E0ED07B68143314
:102DB800180000F0B5F97B6802225A707B685B6ADC
:102DC800002098477B6800221A617B689B6A002B69
:102DD80000D1D9E07B685B78002B00D1D4E07B6818
:102DE8009A6A7B681B69190001209047CCE07B68D0
:102DF8001433180000F06EF9031E0ED07B681433EC
:102E0800180000F08DF97B6801225A707B685B6AB4
:102E1800012098477B6800221A617B685B78002B49
:102E280000D1B3E07B689B6A002B00D1B0E07B68DF
:102E38005B78002B00D1ABE07B689A6A7B681B69E2
:102E4800190000209047A3E07B685B78012B02D033
:102E5800022B32D095E07B681433180000F03AF961
:102E6800031E14D07B6802225A707B685B6A0020BC
:102E780098477B68143318007B68DA687B689B681E
:102E8800D31A190000F0FCF87B6800221A617B68ED
:102E98009B6A002B00D171E07B681B695A42534141
:102EA800DAB20E203B181A707B689A6A7B68196937
:102EB8003B181B781800904760E07B6814331800B3
:102EC80000F008F9031E44D07B689B78002B03D0E0
:102ED8007B680022DA8005E07B68DB8801339AB2E0
:102EE8007B68DA807B68DA887B689B889A421DD188
:102EF8007B6800221A707B6802225A707B685B6AC2
:102F0800002098477B681433180000F009F97B68A3
:102F180000221A617B689B6A002B3BD07B689A6A07
:102F28007B681B6919000220904733E07B68012207
:102F38005A707B685B6A012098477B6814331A00D3
:102F48007B689B681900100000F09AF87B680022E3
:102F58001A617B689B6A002B12D07B681B695A1E1A
:102F68009341DAB20F203B181A707B689A6A7B6823
:102F780019693B181B781800904701E0C0460AE021
:102F8800C04608E0C04606E0C04604E0C04602E08D
:102F9800C04600E0C046BD4604B080BD90B585B0CF
:102FA80000AFB9607A6019000F243B19021C1A702F
:102FB8000C23FB180A1C1A80BB681B88FF2B07D13F
:102FC8003B191B785A1E9341DBB29AB2BB681A8030
:102FD8000F23FB181B78002B18D13B6A00221A809C
:102FE8007B681B8801339AB27B681A807B681B88D0
:102FF8001A000C23FB1800215B5E9A4221DB7B68D8
:1030080000221A80BB6800221A801AE07B6800221E
:103018001A803B6A1B8801339AB23B6A1A803B6A62
:103028001B881C2208215218D21912889A4208D8E3
:103038003B6A00221A800F23FB181B789AB2BB68E0
:103048001A80BB681B88DBB21800BD4605B090BD6E
:1030580080B500AF024B1B681800BD4680BDC04656
:103068008C02002080B500AF044B1B680A331A009D
:10307800024B1A60C046BD4680BDC0468C02002087
:1030880080B582B000AF786039607B6801221A7021
:10309800064B1A687B685A607B683A689A607B6856
:1030A8000022DA60C046BD4602B080BD8C02002016
:1030B80080B582B000AF7860054B1A687B685A60AB
:1030C8007B6801221A70C046BD4602B080BDC0466A
:1030D8008C02002080B582B000AF78607B681B78D6
:1030E800002B01D1002314E07B681B78022B01D14F
:1030F80001230EE0094B1A687B685B68D21A7B686B
:103108009B689A4204D37B6802221A70012300E06C
:1031180000231800BD4602B080BDC0468C020020C6
:1031280080B582B000AF78607B6800221A707B6837
:103138000022DA60C046BD4602B080BD90B589B0B5
:1031480000AF0200FB1D1A700C243B191800142351
:103158001A00002109F0F5FD21007B188022520099
:103168001A607B1801225A607B1801229A607B182A
:103178000122DA607B18044A1900100005F054FC9B
:10318800C046BD4609B090BD0004005090B589B056
:1031980000AF0200FB1D1A700C243B191800142301
:1031A8001A00002109F0CDFD21007B188022520071
:1031B8001A607B1800225A607B1801229A607B18DB
:1031C8000122DA607B18044A1900100005F02CFC73
:1031D800C046BD4609B090BD0004005080B582B01D
:1031E80000AF78600A00FB1C1A70FB1C1B786F2B61
:1031F80003D17B6806225A7106E0FB1C1B78602B02
:103208000ED17B6803225A717B6801221A707B6891
:10321800FA1C12781A71044B1800FFF781FF00E0BE
:10322800C046BD4602B080BDA002002080B584B073
:1032380000AF78607B681B78032B64D000DDADE0BD
:10324800012B02D0022B4DD0A8E05B4B00221A7054
:103258005A4B1E221A70594B05225A707B681A79EC
:10326800564B9A70554B1B789AB2544B5B789BB26D
:10327800D31899B2514B9B789AB20E203B188A18F2
:103288001A803B181B88DAB24C4BDA704B4B1F2262
:103298001A717B6800225A700020FFF74FFF03F075
:1032A80051FC0200464B1A60444B0521180000F0FF
:1032B8000DFA7B681B796F2B05D1424BFA21180058
:1032C800FFF7DEFE0AE07B681B79602B06D1C82376
:1032D8005A003C4B11001800FFF7D2FE7B6802220F
:1032E8001A7060E003F02EFC0200354B1B68D31AFD
:1032F8000F2B55D97B6803221A70334B1B781800A3
:10330800FFF744FF4CE02F4B1800FFF7E3FE031EC6
:1033180048D02C4B1800FFF703FF7B681B79602B04
:1033280003D12A4B0A221A7006E07B681B796F2B9F
:1033380002D1264B05221A707B685B78DBB21A0033
:10334800224B1B78043B9A420FDB7B685B78DBB22D
:103358001A001E4B1B7804339A4206DC7B68052250
:103368001A707B6801229A701CE07B685B79013BCC
:10337800DAB27B685A717B685B79002B0AD17B686B
:1033880004221A707B681B796F2B0BD17B68002293
:103398009A7007E07B6801221A7003E0C04602E0D9
:1033A800C04600E0C0467B68180000F011F8C0462F
:1033B800BD4604B080BDC0469E020020B802002071
:1033C800C0020020A00200209C020020C4020020AD
:1033D80080B582B000AF78607B681B78032B55D925
:1033E8007B681B78052B51D87B681B79602B11D023
:1033F8006F2B3FD17B681B78052B03D17B6801229B
:103408009A7039E07B681B78042B35D17B680022E1
:103418009A7031E07B681B78052B11D11D4B1B7806
:103428000133DAB21B4B1A707B689B68002B16D0ED
:103438007B689B68012098477B6801229A700EE0A0
:103448007B681B78042B0AD17B689B68002B06D00D
:103458007B689B68002098477B6800229A700E4B17
:103468001B78002B0AD10B4B00221A700A4B002242
:103478001A7003E0C04602E0C04600E0C0467B6820
:1034880000221A717B6800221A7000E0C046BD460F
:1034980002B080BD9D0200209C02002080B582B051
:1034A80000AF02003960FB1D1A703B681B78032BC4
:1034B80004D03D4BFA1D12781A7071E0FB1D1B7881
:1034C800002B20D1384B1B78012B1CD1374B1B7894
:1034D800002B08D103F036FB0200354B1A60334B42
:1034E80001221A7057E0314B1B78022B53D103F09D
:1034F80029FB02002E4B1B68D31A022B4BD82B4BEF
:1035080000221A7047E0FB1D1B78012B24D1264BA3
:103518001B78002B20D1254B1B78012B3CD103F0C5
:1035280011FB0200224B1B68D31A022B10D903F09F
:1035380009FB02001E4B1B68D31A072B08D803F09F
:1035480001FB02001A4B1A60184B02221A7023E082
:10355800164B00221A701FE0FB1D1B78012B1BD194
:10356800114B1B78012B17D1104B1B78022B13D151
:1035780003F0E8FA02000E4B1B68D31A022B0BD992
:103588003B685B78DBB20133DAB23B685A70074BB1
:1035980000221A7000E0C046034BFA1D12781A7018
:1035A800BD4602B080BDC046C50200209E02002074
:1035B800C802002080B584B002AF786080235B0029
:1035C800124A1900100005F093FB03001A007B68EB
:1035D80019001000FFF762FF8023DB000C4A190076
:1035E800100005F085FB030018000A4A0A49142355
:1035F80001930A4B00931423FFF7D0FC03001A0031
:103608007B68DA70C046BD4602B080BD0004005039
:1036180000080050B2020020B0020020B4020020CE
:1036280080B584B000AF0200FB1D1A7003F08AFA5F
:103638000300FB6006E003F085FA0200FB68D31A7A
:10364800642B32D81C4B1B781A0040231340F2D14C
:10365800194B40221A70194BFA1D12781A70184B20
:10366800FF221A70174B1B6800225A62154B18006C
:1036780007F0E0F980235B0013480022190005F0E9
:1036880054FB03F05FFA0300FB6006E003F05AFA0C
:103698000200FB68D31A642B09D80A4B1B68DB6845
:1036A80001221340012BF1D002E0C04600E0C046E1
:1036B800BD4604B080BDC046CE020020CC0200202A
:1036C800CD020020A80600200004005090B585B067
:1036D80000AF786039600F23FB1800221A700DE0E4
:1036E8000F243B191B787A68D3181B781800FFF74A
:1036F80097FF3B191A783B1901321A700F23FB18F0
:103708001B783A689A42EBD8C046C046BD4605B019
:1037180090BD000080B500AF1B4B1B780133DAB2B7
:10372800194B1A70194B1B781A004023134027D0E5
:10373800154B1B78072B11D8154B1B78012213400A
:10374800DAB280235B001348190005F0EEFA104B3B
:103758001B785B08DAB20E4B1A7011E080235B000D
:103768000C480122190005F0E0FA074B1B78082BDA
:1037780006D9094B180007F0B3F9044B00221A7058
:10378800C046BD4680BDC046CD020020CE02002006
:10379800CC02002000040050A806002080B582B0AA
:1037A80000AF7860054B180006F0A2FA7B68180095
:1037B80003F0D2F9C046BD4602B080BD4C060020D9
:1037C80080B584B000AF02003960FB1D1A703B68F9
:1037D8001B78FA1D12789A4201D1002313E0FB1DD1
:1037E8001B78002B04D10F23FB1802221A7003E068
:1037F8000F23FB1801221A703B68FA1D12781A7001
:103808000F23FB181B781800BD4604B080BD0000CC
:10381800B0B582B000AF05000C0010001900FB1D08
:103828002A1C1A70BB1D221C1A703B1D021C1A8010
:10383800BB1C0A1C1A80BB1D1B78002B22D1FB1D48
:103848001A78274B52000021D152FB1D1B78254ABC
:1038580059008A5A013290B2224A59008852214AA4
:103868005B009B5A3A1D12889A4231D8FB1D1A7880
:103878001C4B52000021D152FB1D1B781A4A002113
:10388800D15425E0BB1D1B78012B21D1FB1D1A78D3
:10389800144B52000021D152FB1D1B78104A5900CD
:1038A8008A5A013290B20E4A590088520C4A5B007B
:1038B8009B5ABA1C12889A420AD8FB1D1A78084BE0
:1038C80052000021D152FB1D1B78074A0121D15417
:1038D800FB1D1B78044AD35C1800BD4602B0B0BD7E
:1038E800D0020020DC0200200000002080B584B057
:1038F80000AF78607B681A685B68BA60FB60BA687A
:10390800FB6810001900BD4604B080BD80B58AB0C0
:1039180000AFB860F9607A6004F034FF14217B18B6
:1039280002221A607B68F822120694466344DA0A77
:103938007B189A607B180122DA601023FA187B182A
:103948001100180004F0CCFF031E0BD1BA68FB6805
:103958007968012004F0C8FE031E03D12723FB1851
:1039680001221A7004F032FF27217B1800221A70F6
:103978007B181B781800BD460AB080BD80B588B09A
:1039880004AF0200FB1D1A703B1D0A1C1A803B1D68
:103998001B881B0A9BB2DAB20C217B181A703B1DDC
:1039A8001B88DAB27B185A70FB1D1B789AB209483B
:1039B80001235B420293022301937B1800930123A6
:1039C800802105F06DFB012003F0C6F8C046BD4616
:1039D80004B080BDF805002090B589B004AF02009E
:1039E8003960FB1D1A70FB1D1B789AB21048012321
:1039F8005B420293022301930C243B190093012399
:103A0800802105F07BFC012003F0A6F821007B183B
:103A18001B781B021AB27B185B781BB213431BB2CC
:103A28009AB23B681A80C046BD4605B090BDC046F4
:103A3800F805002080B582B000AF0F4B80229201BC
:103A48001A600E4B14221A600D4B01221A600A4BA1
:103A58001B689BB219000520FFF790FFBB1DA02231
:103A6800FF321A80BB1D1B8819000020FFF786FF54
:103A7800C046BD4602B080BDF0020020E80200202A
:103A8800EC02002080B582B000AFBB1D19000220F7
:103A9800FFF7A2FFBB1D1B88DB089BB29B009BB2F4
:103AA8001BB21800BD4602B080BD000080B582B0D0
:103AB80000AF094B1B689BB219000520FFF75EFF9A
:103AC800BB1D19000420FFF787FFBB1D1B881BB215
:103AD8001800BD4602B080BDF002002080B582B05B
:103AE80000AF094B1B689BB219000520FFF746FF82
:103AF800BB1D19000320FFF76FFFBB1D1B881BB2FE
:103B08001800BD4602B080BDF002002090B583B019
:103B180000AFBC1DFFF7B6FF03002380BB1D0022CA
:103B28009B5E1800FEF700FE074A084BFDF7AAFF48
:103B380002000B0010001900FEF794FE031C181C6D
:103B4800BD4603B090BDC046FCA9F1D24D62503FBE
:103B580080B582B000AFFFF7A9FF03001800FCF79B
:103B6800C3FF031C7B60084B1B681800FDF70AF8AD
:103B7800031C191C7868FCF7C9FC031C7B607B6874
:103B8800181CBD4602B080BDE802002080B582B096
:103B980000AFFFF7A3FF03001800FCF7A5FF031C05
:103BA8007B60084B1B681800FCF7ECFF031C191C12
:103BB8007868FCF773FE031C7B607B68181CBD46A5
:103BC80002B080BDEC02002080B582B000AF0200D8
:103BD800FB1D1A70FB1D1B78002B06D0084B00221A
:103BE8002021180005F0A1F805E0054B012220214D
:103BF800180005F09AF8C046BD4602B080BDC04620
:103C08000004005080B582B000AF0200FB1D1A709E
:103C1800FB1D1B78002B06D0084B00221021180032
:103C280005F083F805E0054B01221021180005F086
:103C38007CF8C046BD4602B080BDC04600040050B6
:103C480080B582B000AF0200FB1D1A70FB1D1B7807
:103C5800002B07D0A023DB0501224021180005F026
:103C680064F806E0A023DB0500224021180005F0D7
:103C78005CF8C046BD4602B080BD000080B582B089
:103C880000AF0200FB1D1A70FB1D1B78002B06D02D
:103C9800084B01224021180005F047F805E0054BC4
:103CA80000224021180005F040F8C046BD4602B089
:103CB80080BDC0460004005080B582B000AF786077
:103CC8007B681A68144B1B689A4206D1134B1B6811
:103CD800002B02D0114B1B6898477B681A68104B61
:103CE8001B689A4206D10F4B1B68002B02D00D4B64
:103CF8001B6898477B681A680B4B1B689A4206D169
:103D08000A4B1B68002B02D0084B1B689847C0461B
:103D1800BD4602B080BDC04640070020F802002022
:103D2800D4070020FC020020FC080020000300202B
:103D380080B582B000AF7860C046BD4602B080BD95
:103D480080B582B000AF78607B681A680B4B1B683F
:103D58009A4201D1FFF7DEFC7B681A68084B1B68A2
:103D68009A4206D1074B1B68002B02D0054B1B68F3
:103D78009847C046BD4602B080BDC046A806002090
:103D8800F4060020F402002080B500AF044B1B6845
:103D9800002B02D0024B1B689847C046BD4680BD29
:103DA8000800002080B582B000AF0200BB1D1A8059
:103DB800BB1D1B88180002F0CFFEC046BD4602B0EE
:103DC80080BDB0B586B002AF786008001100FB1C5A
:103DD800021C1A70BB1C0A1C1A700F203B18FA1C14
:103DE80012780F218A431A70FB1C1B781A010E24C3
:103DF8003B191A707B68DB7A002B0BD03B183A18FA
:103E0800127808210A431A703B193A1912780821C6
:103E18000A431A70BB1C1B78012B0ED10F22BB184A
:103E2800BA18127801210A431A700E22BB18BA1860
:103E3800127801210A431A7011E0BB1C1B78002B71
:103E48000DD10F22BB18BA18127801218A431A70B3
:103E58000E22BB18BA18127801218A431A700F254E
:103E68007B191B7804221343DAB208243B191A7011
:103E78000120FFF797FF21007B187A1912785A70F2
:103E88000E257B191B7804221343DAB20C003B1968
:103E98009A700120FFF786FF3B197A191278DA70B9
:103EA8007B6818687B681B7999B23A19FA239B00DA
:103EB8000093042304F0ECFFC046BD4604B0B0BD37
:103EC80080B584B000AFF860B9601900FB1D1A70A6
:103ED800BB1D0A1C1A70FB68BA681A60FB68FA1DD9
:103EE80012781A71FB68BA1D12785A71FA68182389
:103EF800FB181B789371FB6828229A72FB680622CC
:103F0800DA71FB680C221A72FB6814225A72FB6879
:103F18000822DA72C820FFF745FFFB680022332128
:103F28001800FFF74EFF1420FFF73CFFFB68002244
:103F380033211800FFF745FF1420FFF733FFFB6814
:103F4800002232211800FFF73CFF1420FFF72AFF58
:103F5800FB68002220211800FFF733FF1420FFF729
:103F680021FFFB68D979FB6800221800FFF729FFB9
:103F7800FB68197AFB6800221800FFF722FFFB682C
:103F8800597AFB6800221800FFF71BFFFB68997A33
:103F9800FB6800221800FFF714FFFB6800220121CC
:103FA8001800FFF70EFFFB68002202211800FFF738
:103FB80008FFC046BD4604B080BD80B584B000AFE0
:103FC800786008001100FB1C021C1A70BB1C0A1C3C
:103FD8001A700F23FB1800221A707B685B79FA1C91
:103FE80012789A4204D37B685A79FB1C013A1A70FA
:103FF8007B689B79BA1C12789A4204D37B689A79B9
:10400800BB1C013A1A70BB1C1B78002B05D10F236F
:10401800FB18FA1C12781A701FE0BB1C1B78012BC6
:1040280006D10F23FB18FA1C127840321A7014E0DC
:10403800BB1C1B78022B06D10F23FB18FA1C127825
:1040480014321A7009E0BB1C1B78032B05D10F230F
:10405800FB18FA1C127854321A700F23FB181B78BD
:10406800802252421343D9B27B6800221800FFF71E
:10407800A8FEC046BD4604B080BD80B582B000AF82
:1040880078600A00FB1C1A70FB1C19787B680122F7
:104098001800FFF796FEC046BD4602B080BD80B549
:1040A80082B000AF7860396008E03B685A1C3A601B
:1040B8001A787B6811001800FFF7DFFF3B681B7850
:1040C800002BF2D1C046C046BD4602B080BD0000FC
:1040D800B0B588B000AF786008001100FB1C021C66
:1040E8001A70BB1C0A1C1A70BB1C1B78012B42D807
:1040F8001F23FB1800221A7021E01F257B191C784A
:104108007B681800FBF7F8FF03009C420AD27B1972
:104118001B787A68D2187B191B7811780C22BA1888
:10412800D15406E01F23FB181B780C22BA18202153
:10413800D1541F217B181A787B1801321A701F235B
:10414800FB181B78102BD8D9FB1C1B781022D31A0C
:104158000C243A190021D154BB1C1A78FB1C19787D
:10416800074B1800FFF729FF3A19054B11001800F3
:10417800FFF795FF00E0C046BD4608B0B0BDC04699
:104188000403002080B500AFBFF34F8FC046044B37
:10419800044ADA60BFF34F8FC046C046FDE7C04609
:1041A80000ED00E00400FA0580B582B000AF704B66
:1041B8001A8EC8235B009A420BD26D4B3222002123
:1041C80099546C4A6C4B1100180009F025FB042324
:1041D800C9E0674B1A8EC8235B009A4212D9644B18
:1041E8001B8E664A93420DD8614B322201219954A5
:1041F800634A614B1100180009F00EFBBB1D614AB0
:104208001A8076E05A4B1B8E5C4A934213D9584B5E
:104218001A8EFA23DB009A420DD8554B322202211E
:104228009954594A544B1100180009F0F5FABB1D6E
:10423800524A1A805DE04E4B1A8EFA23DB009A42EE
:1042480014D94B4B1A8EAF231B019A420ED8484BF8
:104258003222032199544D4A474B1100180009F0A6
:10426800DBFABB1DAF2292001A8042E0404B1A8E47
:10427800AF231B019A4213D93D4B1B8E444A9342EC
:104288000ED83B4B322204219954424A3A4B110032
:10429800180009F0C1FABB1D962292001A8028E086
:1042A800334B1B8E3A4A934212D9314B1B8E3A4AF2
:1042B80093420DD82E4B322205219954374A2E4B62
:1042C8001100180009F0A8FABB1DC8221A8010E0D6
:1042D800274B1B8E304A93420BD9254B322206219D
:1042E80099542F4A244B1100180009F095FA042319
:1042F80039E02C4B5B889BB2002B01D1002332E0C4
:10430800284B5B889BB2632B07D9264B5B889BB2F3
:10431800254A934201D8012325E0224B5B889BB2B2
:10432800214A93420BD91F4B5B889BB21900BB1DD6
:104338001B881E4AD31A994201DC022313E0194B49
:104348005B889BB21900BB1D1B88184AD31A994277
:1043580008DB144B5B889AB2FA231B019A4201D8F6
:10436800032300E004231800BD4602B080BDC04608
:104378004804002090FC0008F40400201405000004
:104388009CFC0008DC050000A8FC0008B4FC000840
:10439800B80B0000C0FC0008AC0D0000CCFC000805
:1043A800D8FC0008400400208E030000D80E00004E
:1043B800B0B584B002AF4D4B1800FEF78BFE031E5C
:1043C80000D18CE0494BFA211800FEF759FE484B02
:1043D8005B78002B0DD1474B1B78012B46D1444B02
:1043E8009B8F1A00424B5B8F4349444809F014FAEB
:1043F8003CE03F4B5B78022B08D1414B5B889BB27A
:10440800404A41493D4809F007FA2FE0384B5B78AC
:10441800032B16D1364B9B6A181CFEF7DBF90400F8
:104428000D00334B5B6A181CFEF7D4F902000B0031
:10443800364932480092019322002B0009F0ECF92A
:1044480014E02B4B5B78012B10D12A4B1B78012BE6
:1044580006D12F4A294B1100180009F0DDF905E0B3
:104468002C4A264B1100180009F0D6F92A492B4B83
:104478001122180008F04EFC0200FB1D1A70284992
:104488001E4B1122180008F045FC0200BB1D1A70D3
:10449800FB1D1B78002B03D1BB1D1B78002B20D0E4
:1044A8001E4B002200211800FFF712FE134B0122B9
:1044B80000211800FFF70CFE17490D4B02220800D7
:1044C8009B181122190008F033FC1549084B1322D8
:1044D80008009B181122190008F02AFC02E0C046C7
:1044E80000E0C046BD4602B0B0BDC046E0040020B2
:1044F8004804002088040020E4FC00085B04002035
:1045080040040020F4040020F4FC0008FCFC00082F
:1045180010FD000820FD0008100500204A040020B6
:104528002405002080B500AF0E4B1800FEF7D2FD21
:10453800031E13D00B4B1800FEF7BAFDFFF708FB5C
:10454800021C094B5A62FFF7E1FA021C064B9A62F9
:10455800FFF71CFB021C044BDA6200E0C046BD46B4
:1045680080BDC046D00400204804002080B584B037
:1045780002AF0200FB1D1A70FB1D1B78002B09D12E
:10458800C8235B000A4800220092C8220A21FEF7CD
:1045980093FB08E00749084A0548002300930B00ED
:1045A8000A21FEF789FBC046BD4602B080BDC04661
:1045B80010030020AC0D0000B80B000080B584B0DB
:1045C80002AF0200FB1D1A70244BFA1D3E2112781F
:1045D8005A54FB1D1B78012B1BD1214A214B032167
:1045E800180002F097F9C8235B001F4801220092C7
:1045F800C8220A21FEF760FBFA239B00FA22520028
:104608001A48012100910121FEF756FB134B06229F
:104618001A70FB1D1B78022B1CD1114A114B01216A
:10462800180002F077F9FA23DB00FA2292000E480C
:10463800012100910121FEF73FFBFA239B00FA229A
:1046480052000B48012100910121FEF735FB034B75
:1046580006221A70C046BD4602B080BD480400203C
:10466800B80B000094090020EC03002094030020FC
:104678006803002080B584B002AF3A60BB1D021CFD
:104688001A807B1D0A1C1A707B1D1B78022B2AD0EE
:104698004BDC002B02D0012B49D046E03B001B78B5
:1046A800032B46D1264B5B78012B1AD1254B1B785F
:1046B800013B5A1E9341DBB21A00224B1A70214B60
:1046C8001B78012B05D11F4B00229A801D4B00221D
:1046D800DA801C4B186859681B4B1A00FFF716F94B
:1046E80027E0FFF74FFD3B68FA2291001800FBF71F
:1046F800A5FD0B1E07D1154800230093C82364228B
:104708000121FEF7D9FA3B68114A934213D10C4BA9
:104718005B780133DAB20A4B5A70094B5B78032B8A
:1047280009D9074B00225A7005E0C04604E0C0468C
:1047380002E0C04600E0C046C046BD4602B080BDAB
:10474800480400208804002000F80108EC03002039
:104758008813000080B582B002AF5B4B180003F0ED
:10476800C9FA031E01D001F0D7FA5849564B042262
:10477800180002F037FD031E01D001F0CDFAFFF753
:1047880059F9534B180004F0EDFA514951480423E4
:10479800009314234E22FFF793FB4F4B180006F0AB
:1047A80049F94E4B180006F045F94D4B4D4A9A60B1
:1047B8004D4B4E4ADA604E494E4B00221800FEF728
:1047C80035FA4D494D4B00221800FEF72FFA4C4997
:1047D8004C4B00221800FEF729FA4B494B4B00229C
:1047E8001800FEF723FA434B00211800FEF72EFAB3
:1047F800424B00211800FEF729FAC8235B00434802
:1048080000220092C8220121FEF756FA404B0422EA
:104818000121180008F095FA3E4B00221A703D4B12
:1048280000225A703B4B00221A863A4B382200214C
:104838009954394B1800FFF759F802000B00374913
:104848000A604B60354B1B785A1E9341DBB21A0045
:10485800324B1A70314B9B88314A934202D02F4B0E
:104868009A8800E02F4A2B4B5A872C4BDB882C4A1E
:10487800934202D0294BDA8800E02A4A254B9A87CE
:10488800294B32211800FEF7FBFBFA23DA00274BED
:1048980011001800FEF7F4FB254B14211800FEF751
:1048A800EFFB244B002200211800FFF711FC224BDC
:1048B800012200211800FFF70BFC204B180001F023
:1048C800C3FFC046BD4680BD380500204004002017
:1048D800F805002004030020F4060020A8060020A4
:1048E8009002002075450008180400207D46000845
:1048F800D13B0008680300200D3C00089403002009
:10490800853C0008C0030020493C0008EC03002057
:104918007C0400204804002000F8010888040020D6
:10492800FFFF00007E040000D0040020E004002007
:104938009004002030FD00083CFD00089409002088
:1049480080B582B000AF244B1B78002B02D1224BDC
:1049580001221A70214B180001F07CFE204B180030
:10496800FEF728FEFB1D00221A700DE0FB1D1B78C8
:104978002C225A431B4BD3181800FEF7F3F9FB1DE2
:104988001A78FB1D01321A70FB1D1B78052BEDD917
:10499800154B1B780133DAB2134B1A70124B1B7884
:1049A800092B15D9104B00221A70FEF75BFB8023E8
:1049B800DB010E4A1900100004F09AF903005A426C
:1049C8005341DBB21A000A4B11001800FDF7F0FF43
:1049D800C046BD4602B080BDF00400209409002006
:1049E800900200201003002035050020000400502C
:1049F8001804002080B582B002AFDA4B1B78072B71
:104A080000D08FE0D84B9B78012B44D1D64B1B7834
:104A18001B07DB0FDBB21A00D44B19001000FEF79E
:104A2800CFFE0300022B00D07CE0CE4B5B8F01331E
:104A38009AB2CC4B5A87CB4B5A8FCD4B9A80C94BE5
:104A480000221A70CB4B00211800FEF7FFF8CA4B62
:104A580000211800FEF7FAF8C84B00211800FEF7ED
:104A6800F5F8FA235B001800FEF798FEBE4B1B789A
:104A780008221340DBB2002B05D0C14ABA4B0221F1
:104A8800180001F047FFBA4B18685968BD4B1A0067
:104A9800FEF73CFF46E0B44B9B78032B42D1B24B68
:104AA8001B78DB06DB0FDBB21A00B74B19001000CE
:104AB800FEF786FE0300022B34D1AA4B9B8F0133ED
:104AC8009AB2A84B9A87A74B9A8FA94BDA80A54B25
:104AD80000221A70A74B00211800FEF7B7F8A64B62
:104AE80000211800FEF7B2F8A44B00211800FEF7C9
:104AF800ADF8FA235B001800FEF750FE9A4B1B78BE
:104B080010221340DBB2002B05D09D4A964B0221A0
:104B1800180001F0FFFE964B18685968994B1A0067
:104B2800FEF7F4FE994B1800FEF7D4FA031E00D1E5
:104B380068E3FFF739FB030019008A4B33229954C5
:104B4800884B1B78022B03D0904B1800FEF7B0FA65
:104B5800844B1B8E002B0AD18D4B5B889AB2814BFC
:104B68001A868A4B14211800FEF78AFA59E37D4BFE
:104B78001B78062B00D947E39A00864BD3181B688D
:104B88009F460020FFF71AFD764B9B6A8121C905D5
:104B9800181CFBF793FC031E09D07F4A7F4B1100BA
:104BA800180008F039FE6F4B00221A7039E3FEF73F
:104BB800CFFF021C6B4B5A626A4B5B6A181CFDF7ED
:104BC80009FE774A774BFBF749FC031E09D0764A62
:104BD800724B1100180008F01FFE744B00221A7067
:104BE8001FE3604B5B6A181CFDF7F4FD6C4A6D4BC4
:104BF800FBF73EFC031E42D05A4B5B6A6C49181CFB
:104C0800FBF75CFC031E3AD0564B33229B5C032B0C
:104C18002ED1554B1B7810221340DBB2002B0DD13F
:104C2800514B1B7808221340DBB2002B06D1614A96
:104C38005A4B1100180008F0EFFDF2E2504A4A4BB7
:104C48000221180001F066FE5B4A544B110018005F
:104C580008F0E2FD434B01221A70584B00221A70EB
:104C6800FA23DA00494B11001800FEF709FA0DE0A3
:104C7800534A4A4B1100180008F0CEFD06E0514A8D
:104C8800464B1100180008F0C7FDCAE2C9E24E4BB6
:104C980060211800FEF7A2FA4C4A3C4B110018009C
:104CA800FEF7EEF92F4B03221A70BAE2464B9B78B7
:104CB800DBB2012B10D1464A384B1100180008F01E
:104CC800ABFD96235A00314B11001800FEF7D8F9B6
:104CD800244B04221A7099E23B4B9B78DBB2002BE1
:104CE80000D093E2354B1B780133DAB2334B1A709C
:104CF800324B1B78022B09D9364A284B1100180071
:104D080008F08AFD0120FFF759FC7FE2154B0122CC
:104D18001A70FA235A001D4B11001800FEF7B0F95B
:104D28007FE2104B33229B5C012B62D1264BDB7850
:104D3800DBB2002B56D1284A184B1100180008F096
:104D48006BFD084B05221A70244A254B11001800E8
:104D5800FEF796F9FA235A000C4B11001800FEF7DB
:104D68008FF95EE2480400209409002036050020EF
:104D7800880400206803002094030020EC0300202E
:104D8800B80B000000F80108370500209004002047
:104D980040040020700001084CFD00084A0400206F
:104DA8009A9999999999D93F60FD00080C050020B6
:104DB8000000484274FD000884FD00080D0500202D
:104DC80094FD0008A8FD0008900200204C04000093
:104DD800BCFD0008CCFD0008E0FD0008AC0D00009B
:104DE800C0040020CA4ACB4B1100180008F014FD7B
:104DF80005E0C94AC74B1100180008F00DFDC74B64
:104E08001B780133DAB2C54B1A70C44B1B780A2BD6
:104E180000D8FDE1C14B00221A700120FFF7CEFB3C
:104E2800F6E1BF4B33229B5C032B2BD1BD4BDB78C8
:104E3800DBB2002B18D0BC4AB64B1100180008F0A2
:104E4800EBFCBA4B1800FEF76BF9B94AB94B1100E5
:104E58001800FEF715F9B84B14211800FEF710F9E1
:104E6800AF4B02221A70DCE1B44AAA4B11001800B9
:104E780008F0D2FCAD4B1800FEF752F90120FFF7FD
:104E88009DFBCEE1AE4B01221A70A84B1800FEF72D
:104E980021F9031E00D1BDE1AA4A9E4B110018005A
:104EA80008F0BAFCA14B1800FEF73AF90120FFF709
:104EB80085FBB6E19F4B1800FEF70CF9031E28D0BE
:104EC800974B33229B5C012B03D09D4B1B78012B06
:104ED80006D19D4A8F4B1100180008F09DFC14E084
:104EE8008F4B5B6A9949181CFBF7FCFA031E06D026
:104EF800974A884B1100180008F08EFC05E0954A87
:104F0800844B1100180008F087FC0120FFF756FBBE
:104F180087E1834B33229B5C012B00D17CE1884BDA
:104F280000221A70FEF714FE021C7D4B5A627C4B5D
:104F380038229B5C01221340DBB2002B1FD1784B37
:104F48005B6A181CFDF746FC834A844BFBF79AFA08
:104F5800031E14D0724B5B6A8149181CFBF7B8FA20
:104F6800031E0CD06E4B38229B5C0133D9B26C4BBC
:104F7800382299546A4B5A6A7A4B1A6023E0684B74
:104F880038229B5C01221340DBB2002B1BD0644B00
:104F98005B6A7549181CFBF7AFFA031E13D0604B08
:104FA8005B6A7249181CFBF793FA031E0BD05C4B23
:104FB80038229B5C0133D9B2594B38229954584B4B
:104FC8005A6A6B4B1A60564B38229B5C022B00D8EE
:104FD80024E1644B1B68181CFDF7FCFB5E4A5F4B21
:104FE800FBF750FA031E0FD05E4B1B68FF218905A3
:104FF800181CFBF76DFA031E06D05E4A454B1100DC
:10500800180008F009FC1DE0564B1B688121C905F2
:10501800181CFBF771FA031E0ED0524B1B6850493F
:10502800181CFBF755FA031E06D0534A394B1100DA
:10503800180008F0F1FB05E0504A364B1100180043
:1050480008F0EAFBFA235A003B4B11001800FEF760
:1050580017F84B4A2F4B1100180008F0DDFB02200F
:10506800FFF7ACFADDE0344B05211800FEF708F82D
:10507800FEF76EFD021C2A4B5A62294B5B6A181C0C
:10508800FDF7A8FB344A3F4BFBF7E8F9031E00D1B4
:1050980088E03D4B1B78012B09D1214B07221A7060
:1050A8003A4A1C4B1100180008F0B6FB17E01C4BDD
:1050B80000221A70364A174B1100180008F0ACFB92
:1050C800344B00211800FDF7C1FD334B00211800B7
:1050D800FDF7BCFD314B00211800FDF7B7FD154B5E
:1050E8001800FEF71DF82E4B1800FEF719F80F4BA5
:1050F8001800FEF715F8FA235A000F4B1100180094
:10510800FDF7BEFF064B38220021995488E0C046BF
:10511800F0FD00084A04002000FE00080C050020ED
:10512800480400209002002014FE0008C00400205B
:10513800C4090000A00400209004002028FE0008F4
:10514800F104002038FE00084CFE00080000F04181
:1051580060FE000874FE00089A9999999999E93FA8
:105168000000C04004050020000020410000A041CC
:105178000805002088FE000898FE0008A8FE000820
:10518800B8FE00089999D93F88040020C8FE000895
:10519800DCFE00086803002094030020EC030020D4
:1051A800B0040020204B05211800FDF769FF1F4BB4
:1051B8001B7810221340DBB2002B31D11B4B1B781C
:1051C80008221340DBB2002B2AD1FEF7C1FC031CD6
:1051D800181CFDF7FFFA164A164BFBF735F9031EA4
:1051E80000D11DE0FA235B00134800220092FA2246
:1051F800C821FDF761FD114A114B1100180008F094
:105208000BFB0DE0C0460CE0C0460AE0C04608E0D3
:10521800C04606E0C04604E0C04602E0C04600E0E2
:10522800C046BD4680BDC0469004002094090020B9
:105238009A9999999999D93FEC030020ECFE0008B6
:105248004A04002080B500AFFFF7B2F8FFF76AF90B
:10525800064B1800FDF7EAFFFFF7CCFB044B1800DC
:1052680001F008FBC046BD4680BDC0469002002044
:105278009409002080B500AF01F0E8FB00F028F8A1
:1052880000F0B2FB00F092FB00F080F800F07EF92D
:1052980000F012FA00F0D4FA00F020FB00F052FB04
:1052A80000F054F900F07EFA00F010F900F03EFA30
:1052B800FFF750FA054B180004F0C8FC034B180020
:1052C80004F016FDFFF7BEFFF8E7C0464C060020C5
:1052D80090B593B000AF14243B19180034231A007A
:1052E800002107F02EFD3B1D180010231A00002195
:1052F80007F027FD80239B00180004F009FD3B19E7
:105308000A221A603B1980225200DA6021007B18B9
:1053180000221A617B1840225A617B1801229A6187
:105328007B180222DA617B1802221A627B1800229B
:105338005A627B1808229A627B1880229202DA62EB
:105348007B18802292051A637B18180004F02CFD44
:10535800031E01D000F0E0FC3B1D07221A603B1D34
:1053680002225A603B1D00229A603B1D0022DA602F
:105378003B1D0221180005F027F8031E01D000F09C
:10538800CBFCC046BD4613B090BD000080B584B0CC
:1053980000AF3B1D18000C231A00002107F0D1FCB8
:1053A800444B454A1A60434B802212035A60414BD2
:1053B80000229A603F4B0022DA603E4B8022920323
:1053C8001A613C4B04225A613A4B00221A76394B37
:1053D80000225A76374B01229A76364B0422DA613C
:1053E800344B00225A62334B00229A62314B2C22F2
:1053F800012199542F4B00221A632E4B07225A631E
:105408002C4B07229A632B4B3C2200219954294BA1
:105418000022DA64274B180001F03CFD031E01D07E
:1054280000F07AFC3B1D254A1A603B1D00225A6099
:105438003B1D00229A603A1D1E4B1100180002F015
:105448008FF8031E01D000F067FC3B1D1C4A1A6050
:105458003B1D04225A603A1D164B1100180002F039
:105468007FF8031E01D000F057FC3B1D154A1A6057
:105478003B1D08225A603A1D0E4B1100180002F01D
:105488006FF8031E01D000F047FC3B1D0E4A1A605E
:105498003B1D0C225A603A1D064B1100180002F001
:1054A8005FF8031E01D000F037FCC046BD4604B0CB
:1054B80080BDC046380500200024014004000008D3
:1054C8000800000C100000102000001480B500AF88
:1054D8001B4B1C4A1A601A4B1B4A5A60184B002275
:1054E8009A60174B0122DA60154B00221A61144B9F
:1054F80000225A61124B00229A61114B0022DA6194
:105508000F4B00221A620E4B180003F02BFC031EEF
:1055180001D000F001FC0A4B0021180004F0FEFA4B
:10552800031E01D000F0F8FB054B0021180004F021
:1055380041FB031E01D000F0EFFBC046BD4680BD15
:10554800F805002000580040BC7D701080B500AF01
:105558000B4B0C4A1A600A4B03225A60084B0A4A42
:10556800DA60074B084A9A60054B180004F06EFB96
:10557800031E01D000F0D0FBC046BD4680BDC0462A
:105588004C06002000300040FF0F000080B58EB0B0
:1055980000AF2823FB18180010231A00002107F079
:1055A800D0FB1C23FB1818000C231A00002107F05D
:1055B800C8FB3B0018001C231A00002107F0C1FBA0
:1055C8003A4B3B4A1A60394B05225A60374B002246
:1055D8009A60364B374ADA60344B00221A61334BF3
:1055E80080229A61314B180005F0CCF9031E01D0D6
:1055F80000F092FB28217B18802252011A607A1849
:105608002A4B1100180005F02BFD031E01D000F0F5
:1056180083FB264B180005F091FA031E01D000F019
:105628007BFB1C217B1800221A607B1800229A60E1
:105638007A181E4B1100180006F0DEF9031E01D07F
:1056480000F06AFB3B0060221A603B0000225A60AF
:105658003B0002229A603B0004221A613900134B76
:105668000822180005F0FCFB031E01D000F054FBD3
:105678000E4B1B68DA690D4B1B6808218A43DA61F7
:105688003B0000221A613900084B0C22180005F073
:10569800E7FB031E01D000F03FFB044B180000F0AD
:1056A8009DFCC046BD460EB080BDC0465C060020CD
:1056B800000400407094000080B584B000AF3B1D2A
:1056C80018000C231A00002107F03BFB154B164A63
:1056D8001A60144B40225A60124B00229A60114BF8
:1056E8006822DA600F4B00229A610E4B180005F011
:1056F80049F9031E01D000F00FFB3B1D00221A6080
:105708003B1D00229A603A1D064B1100180006F056
:1057180073F9031E01D000F0FFFAC046BD4604B07D
:1057280080BDC046A80600200010004080B584B0A7
:1057380000AF3B1D18000C231A00002107F001FBE5
:10574800154B164A1A60144B40225A60124B00221D
:105758009A60114B124ADA600F4B80229A610E4B05
:10576800180005F00FF9031E01D000F0D5FA3B1D13
:1057780000221A603B1D00229A603A1D064B110058
:10578800180006F039F9031E01D000F0C5FAC0462A
:10579800BD4604B080BDC046F40600200014004099
:1057A800E703000080B500AF234B244A1A60224B60
:1057B800E12252025A60204B00229A601E4B0022BE
:1057C800DA601D4B00221A611B4B0C225A611A4BDE
:1057D80000229A61184B0022DA61174B00221A62E4
:1057E800154B00225A62144B00229A62124B180081
:1057F80006F082F9031E01D000F08EFA0E4B00214C
:10580800180007F073F9031E01D000F085FA0A4B5F
:105818000021180007F0AAF9031E01D000F07CFA55
:10582800054B180007F028F9031E01D000F074FAA0
:10583800C046BD4680BDC046400700200038014034
:1058480080B500AF234B244A1A60224B962292015E
:105858005A60204B00229A601E4B0022DA601D4BD2
:1058680000221A611B4B0C225A611A4B00229A61C2
:10587800184B0022DA61174B00221A62154B0022DE
:105888005A62144B00229A62124B180006F034F93F
:10589800031E01D000F040FA0E4B0021180007F05B
:1058A80025F9031E01D000F037FA0A4B0021180031
:1058B80007F05CF9031E01D000F02EFA054B180022
:1058C80007F0DAF8031E01D000F026FAC046BD46FC
:1058D80080BDC046D40700200044004080B500AF1A
:1058E800164B174A1A60154B962292015A60134BB1
:1058F80000229A60114B0022DA60104B00221A61D4
:105908000E4B0C225A610D4B00229A610B4B002260
:10591800DA610A4B00221A62084B00225A62074BCE
:1059280000229A62054B180006F0E6F8031E01D023
:1059380000F0F2F9C046BD4680BDC04668080020A8
:105948000048004080B500AF164B174A1A60154B47
:10595800962292015A60134B00229A60114B002242
:10596800DA60104B00221A610E4B0C225A610D4B63
:1059780000229A610B4B0022DA610A4B00221A625C
:10598800084B00225A62074B00229A62054B180006
:1059980006F0B2F8031E01D000F0BEF9C046BD46BD
:1059A80080BDC046FC080020004C004080B582B095
:1059B80000AF0C4B9A6B0B4B01210A439A63094BBE
:1059C8009B6B012213407B607B6800220021092029
:1059D80002F032FB092002F044FBC046BD4602B08B
:1059E80080BDC0460010024090B58BB000AF1424B3
:1059F8003B19180014231A00002107F0A2F9BC4B28
:105A08005A6BBB4B04210A435A63B94B5B6B0422A4
:105A180013403B613B69B64B5A6BB54B01210A43B6
:105A28005A63B34B5B6B01221340FB60FB68B04BBE
:105A38005A6BAF4B02210A435A63AD4B5B6B022290
:105A48001340BB60BB68AA4B5A6BA94B08210A4399
:105A58005A63A74B5B6B082213407B607B68A549A0
:105A6800A54B0022180003F060F980231B02A2480E
:105A78000122190003F059F9A049A023DB050022EF
:105A8800180003F052F99E499E4B0022180003F0BB
:105A98004CF99D4B00220121180003F046F99A4B5E
:105AA80001221A21180003F040F998235B00954859
:105AB8000122190003F039F93B19F22292011A6008
:105AC8003B1900225A603B1901229A603B198A4A05
