:020000040800F2
:10000000009000207D5F00080D5D0008135D000872
:1000100000000000000000000000000000000000E0
:10002000000000000000000000000000195D000852
:100030000000000000000000235D00082D5D0008A6
:10004000CD5F000800000000CD5F0008CD5F000814
:10005000CD5F0008CD5F0008CD5F0008CD5F0008D0
:1000600000000000415D0008CD5F0008CD5F000882
:10007000595D0008CD5F0008CD5F0008000000005A
:10008000CD5F0008715D0008895D0008CD5F000844
:10009000CD5F0008CD5F0008CD5F0008CD5F000890
:1000A000CD5F0008CD5F0008CD5F0008A15D0008AE
:0800B000B95D0008D15D0008F4
:1000B80010B5064C2378002B07D1054B002B02D036
:1000C800044800E000BF0123237010BDE0010020B8
:1000D80000000000A4EE0008044B10B5002B03D06C
:1000E8000349044800E000BF10BDC04600000000FE
:1000F800E4010020A4EE00080023C25C0133002ABA
:10010800FBD1581E7047000002B4714649084900E7
:10011800095C49008E4402BC7047C04603B471466E
:10012800490840004900095E49008E4403BC7047F5
:10013800002243088B4274D303098B425FD3030A1E
:100148008B4244D3030B8B4228D3030C8B420DD331
:10015800FF22090212BA030C8B4202D312120902BF
:1001680065D0030B8B4219D300E0090AC30B8B42FD
:1001780001D3CB03C01A5241830B8B4201D38B03AB
:10018800C01A5241430B8B4201D34B03C01A524150
:10019800030B8B4201D30B03C01A5241C30A8B4293
:1001A80001D3CB02C01A5241830A8B4201D38B027E
:1001B800C01A5241430A8B4201D34B02C01A524122
:1001C800030A8B4201D30B02C01A5241CDD2C30994
:1001D8008B4201D3CB01C01A524183098B4201D310
:1001E8008B01C01A524143098B4201D34B01C01AFB
:1001F800524103098B4201D30B01C01A5241C30873
:100208008B4201D3CB00C01A524183088B4201D3E1
:100218008B00C01A524143088B4201D34B00C01ACD
:100228005241411A00D20146524110467047FFE739
:1002380001B5002000F0F0F802BDC0460029F7D053
:1002480076E7704703460B437FD4002243088B426E
:1002580074D303098B425FD3030A8B4244D3030B45
:100268008B4228D3030C8B420DD3FF22090212BA0A
:10027800030C8B4202D31212090265D0030B8B4286
:1002880019D300E0090AC30B8B4201D3CB03C01A70
:100298005241830B8B4201D38B03C01A5241430B4B
:1002A8008B4201D34B03C01A5241030B8B4201D33B
:1002B8000B03C01A5241C30A8B4201D3CB02C01AA6
:1002C8005241830A8B4201D38B02C01A5241430A1E
:1002D8008B4201D34B02C01A5241030A8B4201D30D
:1002E8000B02C01A5241CDD2C3098B4201D3CB01B4
:1002F800C01A524183098B4201D38B01C01A524163
:1003080043098B4201D34B01C01A524103098B4266
:1003180001D30B01C01A5241C3088B4201D3CB0051
:10032800C01A524183088B4201D38B00C01A524134
:1003380043088B4201D34B00C01A5241411A00D2E4
:1003480001465241104670475DE0CA0F00D049424D
:10035800031000D34042534000229C4603098B42BD
:100368002DD3030A8B4212D3FC22890112BA030A45
:100378008B420CD3890192118B4208D389019211C7
:100388008B4204D389013AD0921100E08909C3094C
:100398008B4201D3CB01C01A524183098B4201D34E
:1003A8008B01C01A524143098B4201D34B01C01A39
:1003B800524103098B4201D30B01C01A5241C308B1
:1003C8008B4201D3CB00C01A524183088B4201D320
:1003D8008B00C01A5241D9D243088B4201D34B003B
:1003E800C01A5241411A00D20146634652415B107D
:1003F800104601D34042002B00D54942704763465E
:100408005B1000D3404201B5002000F005F802BDA2
:100418000029F8D016E770477047C0468446100098
:1004280062468C461900634600E0C0461FB501F0DD
:10043800C5FA002801D40021C8421FBD10B501F03B
:1004480015FA4042013010BD10B501F0B7FA002886
:1004580001DB002010BD012010BDC04610B501F021
:10046800ADFA002801DD002010BD012010BDC046F6
:1004780010B501F03DFA002801DC002010BD012074
:1004880010BDC04610B501F033FA002801DA00208B
:1004980010BD012010BDC046844608006146FFE734
:1004A8001FB500F0B7F9002801D40021C8421FBDCC
:1004B80010B500F043F94042013010BD10B500F00E
:1004C800A9F9002801DB002010BD012010BDC0469D
:1004D80010B500F09FF9002801DD002010BD0120B3
:1004E80010BDC04610B500F04FF9002801DC00200F
:1004F80010BD012010BDC04610B500F045F9002818
:1005080001DA002010BD012010BDC046F0B54F46ED
:100518004646D6464502C0B547000C1C6D0A3F0E3C
:10052800C60F002F00D170E0FF2F00D175E0EB005F
:100538008025ED041D43002399469A467F3F6002BB
:10054800430A984663001B0EE40F002B4ED0FF2B86
:1005580046D04246D0008022D20402439046002270
:100568007F3B3100FF1A4B466140C9B213430F2B42
:1005780000D9B5E06E489B00C3589F4600239846B3
:100588002600454692465346022B00D189E0032BAC
:1005980000D19EE0012B18D03B007F33002B69DD92
:1005A8006A0704D00F222A40042A00D004352A0101
:1005B80003D5604B1D403B008033FE2B00DD70E00F
:1005C800AD016D0AD8B202E00E0000200025C0057A
:1005D8002843F6073043E0BCBA46B146A846F0BD0A
:1005E8004346002B3FD10222FF3F03E04346002B46
:1005F8002DD1012231004B466140C9B213430F2B64
:1006080034D84D489B00C3589F46002D13D104236E
:100618009946033B00279A4691E7002D05D1082308
:100628009946063BFF279A4689E70C239946093BDA
:10063800FF279A4683E7280002F09CF97627431F94
:100648009D4000237F4299469A463F1A77E74046E5
:1006580002F090F94246431F9A4076235B42904647
:100668001B1A00227DE7FF2303227AE70E00FF20F2
:100678000025ACE70120C01A1B28A6DC9E372A00FB
:10068800BD40C2406B1E9D4115436B0704D00F232C
:100698002B40042B00D004356B0144D501200025E4
:1006A80095E7FF20002592E780250026FF20ED032F
:1006B8008DE7002398468020C003054209D04346B1
:1006C800034206D1454605436D022600FF206D0A08
:1006D8007DE78020C00305436D02FF206D0A76E7A1
:1006E80042466B015001834219D21B220025013F6B
:1006F80001261C006D005B00002C01DB984201D82C
:100708001B1A3543013A002AF3D15A1E93411D435F
:100718003B007F330E00002B00DD41E7AAE71A22D9
:1007280001251B1AE4E7AD0100206D0A4FE7C0461A
:10073800CCF00008FFFFFFF70CF1000870B542008D
:1007480045024E024C00C30F6D0A0120120E760AB4
:10075800240EC90FFF2A06D0FF2C03D0A24201D1D4
:10076800B54206D070BD002DFCD1FF2CFAD1002E69
:10077800F8D18B4206D00120002AF3D12800431E6D
:100788009841EFE70020EDE770B5420045024E02C0
:100798004C00C30F6D0A120E760A240EC80FFF2AEA
:1007A8001BD0FF2C0ED0002A1BD1002C01D1002E0B
:1007B8001CD0002D0CD083421CD00221581E0840AA
:1007C800013870BD002E22D1002AF4D1002DF2D1BB
:1007D8000028F6D101204042F3E7002D17D1FF2C65
:1007E800F0D0002CE7D1002EE5D1E6E70020002D5F
:1007F800E7D0E2E7A24205DCEADBB54202D8E7D35C
:100808000020DEE74342584140000138D9E7022082
:100818004042D6E770B5420045024E024C00C30F75
:100828006D0A120E760A240EC80FFF2A0BD0FF2C71
:100838000DD0002A1FD1002C16D1002E14D1002073
:10084800002D10D009E0002D0CD1FF2C13D1002E63
:1008580008D1002A08D0834212D00221581E08402D
:10086800013800E0022070BD002DF4D10028FAD133
:1008780001204042F7E7002CEDD1002EEBD1ECE748
:10088800A24205DCF2DBB54202D8EFD30020EAE74A
:100898004342584140000138E5E7C046F0B54F46AD
:1008A8004646D64644024500C0B5640A0F1C2D0EC4
:1008B800C60F002D00D18DE0FF2D00D192E000235E
:1008C800802099469A46E400C00404437F3D78029C
:1008D800430A98467B001B0EFF0F002B00D170E0E7
:1008E800FF2B00D186E04246D00080227F3BED18E6
:1008F8000023D204024390469C4631004B4679407F
:10090800681C0F2B1CD8764A9B00D3589F46390089
:100918004446E2465346022B0FD0032B00D1D7E0C2
:10092800012B37D100200024C0052043C907084304
:10093800E0BCBA46B146A846F0BDFF200024F3E764
:10094800260C2404220C44462404240C4346270085
:100958001B0C574374435A435E4312193B0C9B18B4
:100968009C4203D980225202944666443F041A04EA
:100978003F0CD2199401671EBC411B0C920E9B19A7
:1009880014439B011C431B0100D49BE00123620814
:100998001C40144302007F32002A64DD630704D040
:1009A8000F232340042B00D00434230103D5020075
:1009B8004C4B80321C40FE2ABFDCA401640AD0B232
:1009C800B2E74346002B3DD14A4601331A439146CC
:1009D8009C4692E7002C29D104239946033B002525
:1009E8009A4674E7002C1BD108239946063BFF253D
:1009F8009A466CE74346FF35002B0BD102234A4643
:100A08001A4391469C4678E753463100022B00D0A2
:100A180083E792E703234A461A4391469C466CE7CC
:100A28000C239946093BFF259A4650E7200001F020
:100A3800A1FF7625431F9C4000236D4299469A46A4
:100A48002D1A44E7404601F095FF4246431F9A405D
:100A580000232D1A90469C46763D4EE780240021BF
:100A6800FF20E40360E701239B1A1B2B00DD59E7F5
:100A780022009E30DA4084401300621E94411C43D9
:100A8800630704D00F232340042B00D004346301F0
:100A98001AD50120002447E78020C003044209D06A
:100AA8004346034206D14446044364023900FF200A
:100AB800640A39E78020C003044364023100FF2040
:100AC800640A31E7280065E7A4010020640A2BE7DF
:100AD8008020C00304436402FF20640A24E7C04660
:100AE8004CF10008FFFFFFF7F8B5002813D0C31733
:100AF800C6185E40C40F300001F03CFF9E2305007D
:100B08001B1A962B0FDC082801DD083DAE40760243
:100B1800760AD8B202E0002400200026C00530433F
:100B2800E4072043F8BD992B0CDD05223100121A89
:100B3800D1400A00010030001B318840411E884125
:100B480002431600052D12DC31000D4F39407207A3
:100B580009D00F203040042805D004314A0102D5BD
:100B68009F2339405B1B89014E0AD8B2D6E76A1F1A
:100B780096403100024F39407207F4D0E9E7C04689
:100B8800FFFFFFFB70B5051E0ED001F0F3FE9E239C
:100B980004001B1A962B0CDC082801DD083CA54034
:100BA8006D026D0AD8B201E000200025C005284377
:100BB80070BD992B09DD020029001B3291404A1EA5
:100BC80091410522121AD5400D43052C12DC29004B
:100BD8000C4E31406A0709D00F202840042805D060
:100BE80004314A0102D59F2331401B1B89014D0A5C
:100BF800D8B2DBE7621F95402900024E31406A07F0
:100C0800F4D0E9E7FFFFFFFBF0B54F464646D6466E
:100C18000D000400C0B51F0011002803620F400A30
:100C280010437A00520DE3003C039146640AFA0F20
:100C38004F0F6E0027439246B846760DED0FC90058
:100C4800954200D199E04C46341BA446002C00DCA8
:100C58007CE04A46002A00D1B8E0C54A964200D155
:100C68001CE180223C0012041443A0466246382A44
:100C780000DD61E11F2A00DDCCE164462022121B61
:100C8800444694400F00A14664469140E7404C46D4
:100C98004A1E91413C43424621436446E240801A41
:100CA8005C1AA3429B415F42C71B3B0200D4D0E0C1
:100CB8007F027F0A002F00D1FFE0380001F05AFEC2
:100CC80001000839202322005B1A8F40DA408C404B
:100CD8001743B14200DAFFE0891B4B1C1F2B00DDD4
:100CE800A8E020223900D21A200094409140D84030
:100CF800621E9441DF40002601430C43630709D07C
:100D08000F232340042B05D0231DA342A441644292
:100D18003F191C003B0200D49EE0954B01369E42D1
:100D280000D1B7E0934AE40817407B0771057F02BA
:100D380023433F0B4A0D12053A43ED072A43180097
:100D48001100E0BCBA46B146A846F0BD002C4BD015
:100D58004C46A41BA446002E00D023E104001C43EB
:100D680000D1AFE16246541E012A00D115E2804D40
:100D7800AC4500D1C8E1A4461BE14A46B21A9446E4
:100D8800002A00DCACE04A46002A43D0784A964262
:100D980000D1AFE180223C0012041443A046624611
:100DA800382A67DC1F2A00DC5FE14746203AD74033
:100DB8006246202A05D064464022121B44469440CD
:100DC80021434A1E91410C003C4357E03A000A4334
:100DD80000D105E12200013A012C00D182E1644CE6
:100DE800A4455BD0944641E7634C771C274200D06A
:100DF800C4E004001C43002E00D069E1002C00D19F
:100E0800BFE144460C4300D0D0E14207DB0813435E
:100E1800C00829E03A000A4300D170E162466446FE
:100E2800013A012C00D1E0E0514CA44500D161E128
:100E38009446B4E73A001F39CA401100202B03D06A
:100E48004022D31A9F403C43631E9C410027002642
:100E58000C43630700D053E7B446E4087B072343F9
:100E6800F808434A94451DD06246070352053F0BD4
:100E7800520D60E744460C43621E9441E4189C42BC
:100E88009B415F423F183B02E3D5394B01369E42F6
:100E980000D0B5E03200002700234CE74207DB080A
:100EA8001343C0081A00024300D1E1E180273F0341
:100EB80007433F032E4A3F0B3DE7200001F05AFD50
:100EC800010018311F2900DCFCE60838844027009F
:100ED8000024B14200DBFFE6264A761A17400DE7E8
:100EE800002A2FD04A46921B9446002E00D1ADE02E
:100EF8001F4A914500D10FE1802212041043624637
:100F0800382A00DD0FE11F2A00DD80E16446202237
:100F18001E00121B6746040093409440FE405A1E70
:100F28009341F84034431C43804464188C42BF41C9
:100F38007F424E464744A6E742460A4311004A1EEE
:100F48009141ADE60C4C721C224200D0A1E0020097
:100F58001A43002E00D0FAE0002A00D145E13A00F9
:100F68000A4300D046E14207DB081343C0087BE789
:100F7800FF070000FFFF7FFFFE07000047465C1ADF
:100F8800C21BA342BF417F42B94617004A46BF1A57
:100F98003A0200D58DE023003B4300D08AE60020CA
:100FA800002561E7B44CA14500D1ADE080242404BC
:100FB80020436446382C3DDC62461F2C00DDB7E038
:100FC80020251E002D1B0400AB40AC40D640D0406D
:100FD80042465D1EAB413443121A904623432CE02F
:100FE8004207DB081343C0083BE75C189C429B415F
:100FF80040445B42C71801263B0200D429E7022679
:101008009E4A63081740012214401C43FB071C43F7
:101018007F0873E64446203AD4406246202A05D029
:1010280067464022D21B4746974039434A1E9141A2
:10103800214335E60343581E8341CC1AA142BF41E0
:1010480043467F4255464E46DF1B2EE602001A43B2
:1010580000D1BDE062466446013A012C00D1E5E0CA
:10106800854CA44558D0944649E764462022121B73
:10107800444694400F00A14664469140E7404C46E0
:101088004A1E91413C4342460C436146CA4080187F
:10109800F4E6794CA24200D1FDE6591899429B41E9
:1010A80040445F42C719FC07490816000C437F08F3
:1010B800CFE6CC1AA142BF4143467F42181A554693
:1010C800C71BF7E5C9087B0755460B43F808C8E670
:1010D800002C00D081E043460B4315D18020002529
:1010E8000003E3E65C1AA3429B41C71B5B4201264F
:1010F800FF1ADAE54207DB081343C008D2E64207C5
:10110800DB081343C008ACE643464246C9085B0700
:1011180055460B43D008C5E6434642465B07C90817
:101128000B43D008BEE603431C00631E9C41FCE64B
:101138000200203CE24014006246202A03D04025E9
:10114800AD1AA8400343581E8341234375E7002A7C
:10115800E2D03A000A43CDD04207DB08134380228D
:10116800C0081203104206D0FC08144203D1200024
:10117800CB087A0713435A0FDB005207DB081343E7
:1011880090E643460B4300D109E743464246C90867
:101198005B0755460B43D00866E6CC1AA142894145
:1011A8003F1A4942554601267F1A7EE542465C1A97
:1011B800871AA34292415242BF1A3A023DD5CC1A2D
:1011C800A1428941434649421F1A55467F1A95E56F
:1011D8007B07C9080B43F80843E64446DB080C4381
:1011E80030D142071343C0085CE67B07C9080B43AC
:1011F800F80839E65C189C429B4140445B42C7189A
:101208003B0200D425E61D4B01261F4021E60400C1
:10121800203AD4406246202A04D040226646921BD7
:10122800904003435A1E93411C437EE65C188C424F
:101238008941404449424718DDE623003B4300D139
:10124800ADE606E6440723438024C0082403204271
:1012580008D04246D608264204D155463000CB086D
:1012680051070B435A0FDB00DB085207134319E6FB
:101278000023014A1F005EE5FF070000FFFF7FFF14
:10128800F0B557464E464546DE46E0B58146050070
:101298000C03480092461F0085B0240B400DCE0F6A
:1012A800002800D156E1D44B984200D172E16B0F6F
:1012B800E4001C4380231B0423439846CF4BED00D6
:1012C8009B4600239946834400933C037B00504689
:1012D800240B5B0DFF0F002B00D11FE1C64A934280
:1012E80000D162E1C549420F8C46E40059461443D7
:1012F800802263441204CB1A14439B46C200002088
:1013080033007B409A464B460F2B27D8BC499B009D
:10131800CB589F46B246009B022B16D0032B00D118
:101328008EE2012B00D0D9E000230024002552468C
:101338001B052343D20713432800190005B0F0BC4E
:10134800BB46B246A946A046F0BD00240025AA4BDC
:10135800EDE7BA46A04615000090DCE7444500D208
:10136800C7E100D1C2E101235B429C462E00404602
:101378000025E3442302140E1C431B0C9946230446
:101388001F0C1202494600920197FEF757FF020010
:101398007A430B04310C804619438A4207D901234A
:1013A8005B429C460919E0448C4200D807E2881A3F
:1013B8004946FEF743FF09048C4631046646019A04
:1013C800090C4243030031438A4204D90919013BFD
:1013D8008C4200D8EDE1881A424612041A4390461E
:1013E8004146009B0E041B0C1F000293009B360C09
:1013F8001B04190C0B007343120C7E4303915143D9
:101408007A431F0CBC4676186644B14203D9802142
:1014180049028C466244310C8A1831041E04360C89
:101428008E19904202D312D1B54210D24346591EAA
:10143800009B9C4665441F009D429B415B421B19D3
:10144800C018844200D2A0E100D19BE18846AE1BBF
:10145800B542AD41801A6D42401B844200D1D5E1AE
:101468004946FEF7EBFE019A0B044243310C050096
:1014780019438A4200D96CE1881A4946FEF7DEFE14
:10148800019A360442430904360C03000E43B24263
:1014980000D953E10398B61A02002D041D43029F98
:1014A8002B041B0C5A437B439C46290C4843130CC2
:1014B800844463447943984203D980204002844697
:1014C8006144180C12041B04120C41189B188E421C
:1014D80000D2FFE000D1FAE001231D43494A5A44F3
:1014E800002A00DCAAE06B0700D03DE1ED08434686
:1014F800DB0106D54246444B1A4090468022D20072
:101508005A44424B9A4200DD1FE743465B071D439E
:10151800434652055C02240B530D08E7524622430A
:1015280000D17BE0002C00D1FAE0200001F022FA83
:1015380002000B3A1D2301009B1A52460839DA4073
:101548008C40144352468A40314B58449B4683444E
:101558000020D5E64B462343984644D0002C00D1C2
:10156800CEE0200001F006FA010002000B391D232D
:101578005B1A49461000D940083884400B004D4694
:101588002343984685402348831A9B46002399465F
:1015980000939AE64B46234398461DD10823994663
:1015A800063B0025834600938FE65246224309D125
:1015B800022349461943184B89469C4600240220B9
:1015C800E3449DE603234A461A43134B91469C463F
:1015D80052460320E34493E60C239946093BA04670
:1015E8008346009371E60423994600239B46013302
:1015F8000025009369E6C046FF07000001FCFFFFD5
:101608008CF10008FF030000FFFFFFFEFE0700004B
:10161800F30300000DFCFFFF01F8FFFF494601231B
:1016280019438946002401206AE6002380249A464B
:1016380000258A4B24037AE601256D4201239B1A73
:10164800382B00DD70E61F2B00DCBFE01F2149426C
:101658008A1A4146D1400A00202B04D04146804BCB
:101668005B4499400D436B1E9D4107232A431D008F
:1016780000241540134200D1D4E00F21002311406B
:10168800042900D1CBE0111D9142924152429B188E
:101698000A00190200D4C2E001230024002546E60E
:1016A800802341461B03194208D01C4206D11C4323
:1016B8002403BA461500694B240B38E680244346B8
:1016C80024031C432403B246644B240B2FE6002B4F
:1016D80000D103E7A619681EA64200D28DE08E420B
:1016E80000D2A3E000D1B3E00500F5E6AA4200D994
:1016F80039E64346DE0758086B081E43ED0739E60E
:10170800484601F037F901000200153120321C2942
:1017180000DC2CE74B46083883400025984632E722
:1017280001F028F903001A00153220301C2A00DCC9
:1017380000E75446083B00229C4005E73619013B68
:10174800B44200D9A6E6B24200D8A3E6831E3619F1
:10175800A0E60919013D8C4200D98DE68A4200D8DD
:101768008AE6851E091987E60F232B40042B00D132
:10177800BCE605235B42AB429B4104355B42ED0866
:101788009844B4E6AF4200D960E6824204D800D05B
:101798005CE6AE4200D859E602235B429C46009BB9
:1017A800E0449C4665449D429B415B421B19C0181E
:1017B8004DE68A4200D80EE6831E09190BE68A42D6
:1017C80000D8F4E5831E98460919F0E52549280054
:1017D80059448D4042468A40691E8D414146D84051
:1017E800D94002432A430B00510700D151E70F218A
:1017F8001140042900D046E74BE705008E4200D08F
:101808006AE6009A934200D066E667E6164A5A44AA
:10181800002A00DC10E701230025984467E65D07ED
:101828005B021C0BD2080023154380E50098023D9B
:1018380042008242BF417F423C1936190092DDE7DF
:101848008024434624031C432403044B240B6EE5E5
:10185800009A9A42EAD30500D3E7C046FF07000082
:101868003E0400001E040000FF030000F0B54E46D1
:101878004546DE4657469046E0B517001A03120B58
:101888000500844619480E034C0091465A00DB0FA8
:101898009B46360B640DC90F520D844219D0824203
:1018A80010D0012094420ED14E450CD10120C445E0
:1018B80009D1594517D0002C05D130002843431EC3
:1018C800984100E00120F0BCBB46B246A946A046BC
:1018D800F0BD330001202B43F5D1A242F3D14B4692
:1018E8003B43F0D1E2E70020EDE7C046FF070000E8
:1018F800F0B54746CE460400180016001B031B0B24
:101908002D4D4A00994680B543000F03A446B046C2
:101918003F0B520DC90F5B0DC00FAA4221D0AB423D
:1019280013D0002A22D13C43002B02D14D462E432E
:1019380022D0002C10D0814222D002200139084048
:101948000138C0BCB946B046F0BD4D462E4329D13A
:10195800002AF0D13C43EED10028F2D101204042C8
:10196800EFE73D0025431DD19342EED0002BE2D195
:101978004C462643DFD1E0E70020002CE1D0DCE72D
:101988009A420ADCE8DB4F45D7D80ED000204F45F5
:10199800D7D20029E2D00800D3E74342584140009B
:1019A8000138CEE702204042CBE7C445C5D8002025
:1019B800C445C6D2EDE7C046FF070000F0B547466C
:1019C800CE460400180016001B031B0B2C4D4A00C2
:1019D800994680B543000F03A446B0463F0B520D0D
:1019E800C90F5B0DC00FAA420DD0AB4210D0002A20
:1019F80027D13C43002B11D14D462E430ED1002058
:101A0800002C15D00EE03D00254310D1934218D18B
:101A18004D462E430BD1002A02D13C43002C0BD05B
:101A2800814214D0022001390840013800E0022028
:101A3800C0BCB946B046F0BD0028F9D101204042EB
:101A4800F6E7002BECD14C462643E9D1EAE79A4267
:101A580004DD4342584140000138E9E79A42EBDB94
:101A68004F45DFD806D000204F45E1D20029E5D008
:101A78000800DDE7C445D5D80020C445D8D2F5E72D
:101A8800FF070000F0B557464E464546DE46E0B52E
:101A980098460C034B000600924687B0240B5B0D5A
:101AA800CF0F002B00D15CE1D94A934200D175E1F8
:101AB800420FE4001443802212041443D54AC5009F
:101AC800944663440093002399469B464346424606
:101AD8001E03D20F5B0050469046360B5B0D00D1BB
:101AE80020E1CB4A934200D162E1CA49420F8C46B9
:101AF80000996344F6008C46164380229C441204E5
:101B080063461643C2000020009300994346013102
:101B18008C4649467B4001930F2926D8BE4B890045
:101B280059588F46434601933400150083465B4657
:101B3800022B16D0032B00D103E2012B00D0CDE0FD
:101B4800002200240025019B12052243DB071A43CB
:101B58002800110007B0F0BCBB46B246A946A04613
:101B6800F0BD00240025AA4AEDE7280C2D042D0C11
:101B78002B00110C1204120C5343984613002F002B
:101B8800434399464F434F44BB4647460B003F0CDF
:101B9800BA464343DA440293D14504D980277F02E9
:101BA800B9464B44029353461B0C9B4653461F04AD
:101BB80043461B041B0C98463B0043440493330CD8
:101BC8003604360C9846330043439946434643430C
:101BD8002F009A46434677435D43380C4D444519D8
:101BE800A94503D980235B029946CA443F04280CBF
:101BF8003F0C2D04ED19270C2404240C03002000AD
:101C080050437A4391463A0053440593030C9A464D
:101C18004A43614349445144AB44894503D980232D
:101C28005B0299464A4400040B0C000C090409188D
:101C380020009946434670435C437E435F43030C50
:101C48009846A41944444A440397A64204D98023D9
:101C58005B029846474403972304029E9A46059BD5
:101C68005E449846AE42AD4176188E4289410004E2
:101C7800000C504440446D424719B84693464942C7
:101C88008946C344D94498428041A845AD4193450B
:101C98009241894589416D4240422843240C524271
:101CA80049420A43039B00198018C7184B46DC0DAC
:101CB800049B75021D436A1E95414B46F60D7F0233
:101CC80035435A023C431543FB0100D41CE1012172
:101CD8006A080D401543E207154364084F496144FB
:101CE800002900DCB0E06B0709D00F222A40042A43
:101CF80005D02A1DAA42AD416D4264191500E301C1
:101D080004D58021464AC90014406144454A91429D
:101D180000DD26E76207ED08640249051543240B38
:101D28004A0D10E75246324300D17FE0002E00D121
:101D3800DCE0300000F01EFE02000B3A1D2301001B
:101D48009B1A52460839DA408E40164352468A405A
:101D5800009B3549181A03008C4663440020009301
:101D6800D3E6250005434AD0002C00D1B0E020007E
:101D780000F000FE010002000B391D2310005B1A61
:101D88003100350008388440D94085400C43264846
:101D9800831A0093002399469B4697E6050025433E
:101DA80026D1082200930223002491469B468DE603
:101DB8005246009B324310D1154900268C46634495
:101DC8004946009302231943894602209DE65B4653
:101DD8000197022B00D0ADE6C3E60D4A03209446D6
:101DE80063444A46009303231A43914652468CE6BD
:101DF8000C2200930323050091469B4666E60423C4
:101E0800994600230093013300249B465EE6C046B2
:101E1800FF07000001FCFFFFCCF10008FF030000F2
:101E2800FFFFFFFEFE0700000DFCFFFF49460123F0
:101E3800194389460026012067E6002380240025EF
:101E4800434A019324037EE60120401A382800DD26
:101E580076E61F285BDD1F2223005242511ACB4031
:101E68001900202803D03B4A6244944025436A1E47
:101E780095412A000A4307210D000024154011420C
:101E88005BD00F2100241140042953D0111D914229
:101E980092415242A4180A0023024BD50122002481
:101EA800002550E680231B031C4209D01E4207D19F
:101EB80033431C0343461500240B254A019342E68D
:101EC8008022120314432403214A240B01973AE683
:101ED80000F050FD01000200153120321C2900DC01
:101EE8004BE7340008380025844050E700F042FDF5
:101EF80003001A00153220301C2A00DC1EE7564663
:101F0800083B00229E4023E7009B9C46E6E61249D8
:101F1800220061442E008D408A40C640691E8D41D2
:101F280032432A43C4405307B6D00F211140042935
:101F3800ACD1B1E765076402240BD208154300222F
:101F480001E68022120314432403014A240BFAE514
:101F5800FF0700003E0400001E040000F8B55746C5
:101F68004E464546DE46E0B51E0017004A000B0304
:101F7800520D5B0A9046420F1A43CD0FCD4C3103E8
:101F8800C300944670007A0F490AFF009A46B94682
:101F9800400DF60F1143A04200D1B1E00122564096
:101FA800B346B54200D188E04246121A002A00DC46
:101FB800AEE0002800D1C1E0BE48804500D151E123
:101FC800802000040143382A00DD7BE11F2A00DD60
:101FD800EEE120203E00801A0C00D640D140874018
:101FE80062468440521A781E8741944634432743F8
:101FF800DC1BA3429B4162465B42D31A99464B467F
:102008001B0200D418E14B465802430A99464B4636
:10201800002B00D137E1484600F0ACFC010008393C
:102028002023220048465B1ADA4088408C40434609
:102038001043884500DD36E1C91A4B1C1F2B00DD13
:10204800EAE020222600D21A01009440DE40D8405F
:1020580000239140621E94418146984631430C43C7
:10206800630709D00F232340042B05D0231DA34267
:10207800A4416442A1441C004B461B0200D4DEE08C
:1020880041468C4B0131994200D1E7E04B468A48E2
:10209800E4080340180049055B07400223434A0D42
:1020A800040B1205ED0722432A4318001100F0BC67
:1020B800BB46B246A946A046F8BD4246121A002AB7
:1020C80052DD002800D19CE0A04500D1CAE0802064
:1020D80000040143382A00DD49E11F2A00DC97E1AA
:1020E80010000E002038C640202A04D04020821A52
:1020F80091400F43B9464C46621E944134433AE13D
:102108000A003A4328D0B346B5422BD06B4A424422
:10211800002A5DD042464446821A002C00D0F5E0E1
:1021280065461D4300D19CE1551E012A00D1FBE103
:10213800604CA24200D1BDE12A00F0E0080038431B
:1021480000D1C3E0501E012A00D1A8E1594CA24297
:1021580000D187E0020036E701225640B346B54277
:1021680000D021E7554A4244002A00D1B5E0424652
:102178004446821A002C00D138E14E4EB04200D1BC
:10218800DEE18026644636043443A446382A00DD5E
:1021980096E11F2A00DD24E22026B41AA2466446EE
:1021A8005646B440A1461C004E46D440264334004F
:1021B8005646B3405E1EB3411C436346D340C9181C
:1021C800E419BC42BF417F42B94680468944D8E001
:1021D80040463B4C0130204200D0B4E04046002845
:1021E80000D044E16046184300D190E1080038432C
:1021F80000D0AAE16146DB0849070B436146CC08D9
:1022080027E00800384361D0501E012A00D139E187
:10221800A24227D002005DE702001F39CA40110020
:10222800202B03D04022D31A98400443631E9C41BC
:102238000023994698460C43630700D012E74B46A3
:102248004A46E4085B072343D408424619498A42B0
:102258000ED024035205240B520D22E70A00002455
:1022680000231EE7DB086246520713436246D40880
:102278001A00224300D1FCE18022120314432403F4
:102288000C4A240B0DE7200000F074FB0100183104
:102298001F2900DCC4E60838844043462000002497
:1022A800884500DCC8E6044A5B1A10409846814617
:1022B800D6E6C046FF070000FFFF7FFF01F8FFFFDB
:1022C800FE0700000F437A1E974191E66146DB083E
:1022D80049070B436146CC08B8E74046D34C013068
:1022E800204200D0A2E04046002800D001E160462C
:1022F800184300D15EE10800384300D05FE1614631
:10230800DB0849070B436146CC08A2E7C84DA84241
:1023180000D1CFE0802564462D042C43A446382AFA
:1023280056DC1F2A00DDD1E020251E00AD1A6446C8
:10233800AB40AC40D6405D1EAB41344323436446BA
:10234800D440091B49E06046DC1B461AA342804181
:102358004042814630004E46801B8146000276D4BA
:102368004B46234300D052E60024002571E7394349
:102378000C00621E9441E4189C429B415B426344FA
:1023880099464B461B0200D456E701239C46A84BAE
:10239800E044984538D04B46A6480122034018002F
:1023A800630814401C43C3071C434308994657E677
:1023B80010000E002038C640202A04D04020821A7F
:1023C80091400F43B9464F467A1E974137430FE66F
:1023D80062461A4313005A1E9341FC1AA742BF4192
:1023E8007F42CB1B99465D46804608E666461E43FB
:1023F80000D1BEE0561E012A00D109E18C4CA24250
:1024080000D119E13200C1E642460024002348E623
:1024180020200C00801A3E0087408440D640781E59
:102428008741D14034433C438C44A4E7804A9042DE
:1024380000D1E9E0DF199F429B4161445B42C91822
:10244800CC077F084B08994680463C43F4E6FC1AC3
:10245800A742BF4163467F42C91ACB1B99465D46D6
:10246800D5E5FF084B075D463B43CC08EEE66246E0
:102478001A4300D082E00B003B431BD18024002587
:102488002403F9E6DC199C429B41614489465B427E
:1024980099444B461B0244D401239846CCE6DC1BE6
:1024A8006246A3429B41511A5B42CB1A99460123CB
:1024B8009846A4E5FF084B075D463B43CC08D7E6A2
:1024C80062461A431400631E9C4179E6150064466F
:1024D800203DEC40A046202A05D040256446AA1A93
:1024E800944023439A465446631E9C4143462343E3
:1024F80073E762461A4323D00A003A4300D0A0E0AB
:102508006246DB08520713436246D408B0E60B0064
:102518003B4300D128E7FF084B075D463B43CC0807
:1025280097E60223984636E7FC1AA742BF4163465E
:102538007F42C91ACB1B994601235D4698465EE542
:102548004B07FF083B43CC0892E6DC1B6046A342DE
:10255800B641401A7642801B8146000260D5FC1ABB
:10256800A742BF4163467F42C91ACB1B99465D46C5
:1025780076E5FF084B073B43CC0867E60A00DB0813
:102588003A4300D16FE66246520713436246D408C5
:1025980080221203144207D0C808104204D15D46B5
:1025A8000400FB0849070B435A0FDB00DB085207FE
:1025B80013435DE64B07FF083B43CC0849E6DC19AB
:1025C8009C429B41614489465B4299444B461B02AD
:1025D80000D431E64A46174B1A40012391469846E3
:1025E8002AE616006446203EF440A046202A05D07C
:1025F80040266446B21A944023439A465446631EC2
:102608009C4143461C43DBE502000024002348E5C7
:10261800DC19BC42BF41614489467F42B94438E76E
:102628004B46234300D19FE606E6C046FE0700005E
:10263800FF070000FFFF7FFFFF084B073B43CC0865
:1026480016E66246DB08520713436246D408802226
:102658001203144207D0C808104204D15D46040092
:10266800FB0849070B435A0FDB005207DB081343EB
:10267800FEE50023014A1C0013E5C046FF070000E1
:1026880070B505000C481C0316005B000A034900DE
:10269800120B490D240B5B0D814208D0064A00201D
:1026A800934203D120003043431E984170BD01205E
:1026B8002A43FBD1F2E7C046FF0700000A0030B505
:1026C800134C530009030500090B00205B0DD20FC2
:1026D800A34204DD0F48834202DD0F4BD01830BD02
:1026E8008020400301430D48C01A1F2808DD0C480C
:1026F800C31AD9400B005842002AF0D11800EEE75F
:10270800084CC540A446634499400B002B43F2E7AC
:10271800FE0300001D040000FFFFFF7F33040000DC
:1027280013040000EDFBFFFF70B5002816D0C31797
:10273800C5185D40C40F280000F01CF9114A121A90
:102748000A2816DC03002E0015339E400B23181AA6
:10275800C54052052D032D0B530D03E00024002323
:10276800002500261B052B43E407234330001900EE
:1027780070BD0B38854052052D0300262D0B530DD7
:10278800F0E7C0461E04000010B5041E10D000F08B
:10279800F1F80F4B1B1A0A2811DC0B222100121A20
:1027A800D14015300A035B058440120B5B0D01E034
:1027B800002300221B0513432000190010BD22002E
:1027C8000B3882405B0512030024120B5B0DF1E706
:1027D8001E04000070B543004602C40FFE201B0E05
:1027E800591C750A08420CD0E022920094466D07E5
:1027F800360B63441B053343E407234328001900C1
:1028080070BD002B14D1002D1BD0280000F0B2F8A9
:102818000A281CDC0B232E001B1ADE40030015338C
:102828009D400E4A3603121A5205360B530DE1E746
:10283800002D09D08022360B1203094B6D07164371
:10284800D8E700230026D5E70026054BD2E703008A
:102858000B3B9D402E000025E3E7C046890300009E
:10286800FF07000002004B00F0B55B0D0C033D4E66
:10287800640A400F5F1CC90F0443D50037420AD0D1
:1028880039481E18FE2E16DDFF200024C0052043FF
:10289800C9070843F0BD002B06D12C4326D00522DA
:1028A8009201540AD8B2F1E72543EDD08020C00345
:1028B8000443FF20EAE7002E1BDD9201531E9A41D4
:1028C800E4006D0F22432A43530748D00F231340D7
:1028D800042B00D004328023DB0413403FD0701C4B
:1028E800FE2ED1D09201540AC0B2CFE700200024B6
:1028F800CCE73200173222DB8020000420431E245C
:10290800A41B1F2C1DDD02225242961B0200F2401E
:102918001600202C04D0154A944663449840054379
:102928002A00531E9A41324300265307CED18024F1
:102938001300E404012023402242D3D1B0E700234E
:10294800ADE70B4A94462A00E24014002A0063448B
:102958009A409840551EAA4102432243E4E73300B7
:102968009EE7C046FE07000080FCFFFFA2FCFFFFB9
:1029780082FCFFFF1C2101231B04984201D3000C99
:1029880010391B0A984201D3000A08391B099842DA
:1029980001D30009043902A2105C40187047C046F0
:1029A8000403020201010101000000000000000010
:1029B80090B58BB000AF78600A00FB1C1A70272115
:1029C8007B18FA1C12781A707B681B69002B05D0DB
:1029D8007B681B697C189847030023702723FB1822
:1029E8001B78002B00D191E07B681B78072B00D95E
:1029F80080E09A008B4BD3181B689F467B680122A6
:102A08001A707B6814333221180000F055FB00F06F
:102A18003BFB02007B685A6277E07B68143318003E
:102A280000F074FB031E67D07B6802221A7063E013
:102A38007B6803221A707B681433FA229200110013
:102A4800180000F039FB7B68DB68002B56D0202388
:102A5800FB1801221A707B68DB687A6810893A6A69
:102A6800002198474AE07B681433180000F04EFBB9
:102A7800031E45D07B6804221A707B68DB68002B34
:102A88003ED01C23FB1804221A707B68DB687A6826
:102A98001089FA690021984732E07B6814331800DE
:102AA80000F034FB031E2DD17B6801221A707B686D
:102AB80014333221180000F0FFFA00F0E5FA0200A2
:102AC8007B685A621EE000F0DFFA02007B685B6AEE
:102AD800D21A7B685A607B68DB68002B14D07B684D
:102AE8005B68BB617B68DB687A681089BA69022118
:102AF800984709E0C04691E0C0468FE0C0468DE0A7
:102B0800C0468BE0C04689E0C04687E07B681B78FA
:102B1800033B042B00D978E09A00434BD3181B6879
:102B28009F467B6805221A707B681433322118008F
:102B380000F0C2FA72E07B681433180000F0E6FA7D
:102B4800031E66D07B6806221A707B685B780133A7
:102B5800DAB27B685A707B68DB68002B0AD01423D2
:102B6800FB1803221A707B68DB687A6810897A6917
:102B7800002198477B68DB68002B4AD07B685A782D
:102B88001023FB181A707B68DB687A6810893A6929
:102B9800012198473DE07B6809221A707B6814334D
:102BA800180000F0D9FA7B6800225A707B68DB684D
:102BB800002B30D00C23FB1805221A707B68DB68C9
:102BC8007A681089FA680021984724E07B68072210
:102BD8001A707B681433FA2252001100180000F0B2
:102BE8006BFA1BE07B681433180000F08FFA031EA1
:102BF80013D07B6800221A707B681433180000F029
:102C0800ABFA7B6800225A7007E07B6800221A70D2
:102C180004E0C04602E0C04600E0C046BD460BB036
:102C280090BDC0460CF200082CF2000880B584B0B4
:102C380000AFF860B9607A603B60FB68BA681A60F8
:102C4800FB687A685A60FB683A689A60FB68FE22FB
:102C58009205DA60FB68FE2292051A61C046BD46FD
:102C680004B080BD80B584B000AFF860B9607A6008
:102C7800FB68BA685A62FB687A689A62C046BD46C1
:102C880004B080BD80B582B000AF786039607B68E1
:102C98005B6A002B28D07B6801221A703B68002BE6
:102CA8000AD07B6800225A707B6814333A68110096
:102CB800180000F001FA17E07B6802225A707B685E
:102CC8005B6A002098477B681433180000F044FAC8
:102CD8007B6800221A617B689B6A002B04D07B68A2
:102CE8009B6A002101209847C046BD4602B080BDBE
:102CF80090B585B000AFF8607A603B600B243B1953
:102D08000A1C1A70FB685B6A002B44D03B191B78BD
:102D1800002B3BD07B68002B3AD03A687B689A42FC
:102D280038D9FB685B6A01209847FB6803221A7050
:102D3800FB6801225A70FA68182308215B18DB190E
:102D48001B7893703B191B789AB2FB689A80FB68D2
:102D58000022DA80FB687A689A60FB683A68DA6071
:102D6800FB6814331A00FB689B681900100000F018
:102D7800A3F9FB6800221A61FB689B6A002B0AD042
:102D8800FB689B6A00210020984704E0C04602E0E7
:102D9800C04600E0C046BD4605B090BD80B584B0D1
:102DA80000AF78607B685B6A002B00D10FE17B681D
:102DB8001B78002B04D07B681B695A1C7B681A613E
:102DC8007B681B78032B5BD000DDF7E0012B02D07A
:102DD800022B28D0F2E07B681433180000F096F933
:102DE800031E0ED07B681433180000F0B5F97B6819
:102DF80002225A707B685B6A002098477B68002231
:102E08001A617B689B6A002B00D1D9E07B685B78EC
:102E1800002B00D1D4E07B689A6A7B681B69190093
:102E280001209047CCE07B681433180000F06EF95D
:102E3800031E0ED07B681433180000F08DF97B68F0
:102E480001225A707B685B6A012098477B680022E0
:102E58001A617B685B78002B00D1B3E07B689B6AC2
:102E6800002B00D1B0E07B685B78002B00D1ABE091
:102E78007B689A6A7B681B69190000209047A3E069
:102E88007B685B78012B02D0022B32D095E07B68FF
:102E98001433180000F03AF9031E14D07B6802229C
:102EA8005A707B685B6A002098477B681433180067
:102EB8007B68DA687B689B68D31A190000F0FCF815
:102EC8007B6800221A617B689B6A002B00D171E045
:102ED8007B681B695A425341DAB20E203B181A70BC
:102EE8007B689A6A7B6819693B181B7818009047B9
:102EF80060E07B681433180000F008F9031E44D022
:102F08007B689B78002B03D07B680022DA8005E081
:102F18007B68DB8801339AB27B68DA807B68DA8861
:102F28007B689B889A421DD17B6800221A707B6857
:102F380002225A707B685B6A002098477B681433CA
:102F4800180000F009F97B6800221A617B689B6A07
:102F5800002B3BD07B689A6A7B681B6919000220AA
:102F6800904733E07B6801225A707B685B6A0120D6
:102F780098477B6814331A007B689B681900100017
:102F880000F09AF87B6800221A617B689B6A002B24
:102F980012D07B681B695A1E9341DAB20F203B1886
:102FA8001A707B689A6A7B6819693B181B78180045
:102FB800904701E0C0460AE0C04608E0C04606E087
:102FC800C04604E0C04602E0C04600E0C046BD4638
:102FD80004B080BD90B585B000AFB9607A601900C3
:102FE8000F243B19021C1A700C23FB180A1C1A80A8
:102FF800BB681B88FF2B07D13B191B785A1E9341CE
:10300800DBB29AB2BB681A800F23FB181B78002B1F
:1030180018D13B6A00221A807B681B8801339AB258
:103028007B681A807B681B881A000C23FB18002118
:103038005B5E9A4221DB7B6800221A80BB68002213
:103048001A801AE07B6800221A803B6A1B880133C9
:103058009AB23B6A1A803B6A1B881C2208215218C4
:10306800D21912889A4208D83B6A00221A800F2384
:10307800FB181B789AB2BB681A80BB681B88DBB246
:103088001800BD4605B090BD80B500AF024B1B6867
:103098001800BD4680BDC046FC01002080B500AFC9
:1030A800044B1B680A331A00024B1A60C046BD461F
:1030B80080BDC046FC01002080B582B000AF7860BA
:1030C80039607B6801221A70064B1A687B685A605F
:1030D8007B683A689A607B680022DA60C046BD4621
:1030E80002B080BDFC01002080B582B000AF7860DE
:1030F800054B1A687B685A607B6801221A70C046C3
:10310800BD4602B080BDC046FC01002080B582B03B
:1031180000AF78607B681B78002B01D1002314E096
:103128007B681B78022B01D101230EE0094B1A683A
:103138007B685B68D21A7B689B689A4204D37B6879
:1031480002221A70012300E000231800BD4602B0D5
:1031580080BDC046FC01002080B582B000AF786019
:103168007B6800221A707B680022DA60C046BD4680
:1031780002B080BD90B589B000AF0200FB1D1A7087
:103188000C243B19180014231A00002108F0F7FE3C
:1031980021007B18802252001A607B1801225A6095
:1031A8007B1801229A607B180122DA607B18044A96
:1031B8001900100004F056FDC046BD4609B090BD88
:1031C8000004005090B589B000AF0200FB1D1A70D2
:1031D8000C243B19180014231A00002108F0CFFE14
:1031E80021007B18802252001A607B1800225A6046
:1031F8007B1801229A607B180122DA607B18044A46
:103208001900100004F02EFDC046BD4609B090BD5F
:103218000004005080B582B000AF78600A00FB1C43
:103228001A70FB1C1B786F2B03D17B6806225A711E
:1032380006E0FB1C1B78602B0ED17B6803225A71B9
:103248007B6801221A707B68FA1C12781A71044B89
:103258001800FFF781FF00E0C046BD4602B080BD00
:103268001002002080B584B000AF78607B681B78BE
:10327800032B64D000DDADE0012B02D0022B4DD032
:10328800A8E05B4B00221A705A4B1E221A70594B49
:1032980005225A707B681A79564B9A70554B1B78E1
:1032A8009AB2544B5B789BB2D31899B2514B9B7826
:1032B8009AB20E203B188A181A803B181B88DAB27B
:1032C8004C4BDA704B4B1F221A717B6800225A70E4
:1032D8000020FFF74FFF02F0F3FE0200464B1A6092
:1032E800444B0521180000F00DFA7B681B796F2B01
:1032F80005D1424BFA211800FFF7DEFE0AE07B6891
:103308001B79602B06D1FA235A003C4B1100180098
:10331800FFF7D2FE7B6802221A7060E002F0D0FE4E
:103328000200354B1B68D31A0F2B55D97B68032233
:103338001A70334B1B781800FFF744FF4CE02F4BF3
:103348001800FFF7E3FE031E48D02C4B1800FFF7C8
:1033580003FF7B681B79602B03D12A4B0A221A7062
:1033680006E07B681B796F2B02D1264B05221A7069
:103378007B685B78DBB21A00224B1B78043B9A42CD
:103388000FDB7B685B78DBB21A001E4B1B780433BB
:103398009A4206DC7B6805221A707B6801229A70C3
:1033A8001CE07B685B79013BDAB27B685A717B6809
:1033B8005B79002B0AD17B6804221A707B681B7921
:1033C8006F2B0BD17B6800229A7007E07B68012283
:1033D8001A7003E0C04602E0C04600E0C0467B68C1
:1033E800180000F011F8C046BD4604B080BDC046C4
:1033F8000E020020280200203002002010020020C7
:103408000C0200203402002080B582B000AF786042
:103418007B681B78032B55D97B681B78052B51D803
:103428007B681B79602B11D06F2B3FD17B681B7891
:10343800052B03D17B6801229A7039E07B681B78E1
:10344800042B35D17B6800229A7031E07B681B78A9
:10345800052B11D11D4B1B780133DAB21B4B1A70A7
:103468007B689B68002B16D07B689B680120984777
:103478007B6801229A700EE07B681B78042B0AD1C6
:103488007B689B68002B06D07B689B680020984768
:103498007B6800229A700E4B1B78002B0AD10B4BCD
:1034A80000221A700A4B00221A7003E0C04602E09C
:1034B800C04600E0C0467B6800221A717B68002283
:1034C8001A7000E0C046BD4602B080BD0D02002063
:1034D8000C02002080B582B000AF02003960FB1DED
:1034E8001A703B681B78032B04D03D4BFA1D1278E9
:1034F8001A7071E0FB1D1B78002B20D1384B1B780C
:10350800012B1CD1374B1B78002B08D102F0D8FDBA
:103518000200354B1A60334B01221A7057E0314BC9
:103528001B78022B53D102F0CBFD02002E4B1B68F7
:10353800D31A022B4BD82B4B00221A7047E0FB1DE5
:103548001B78012B24D1264B1B78002B20D1254B2F
:103558001B78012B3CD102F0B3FD0200224B1B6803
:10356800D31A022B10D902F0ABFD02001E4B1B68C8
:10357800D31A072B08D802F0A3FD02001A4B1A60D1
:10358800184B02221A7023E0164B00221A701FE013
:10359800FB1D1B78012B1BD1114B1B78012B17D15D
:1035A800104B1B78022B13D102F08AFD02000E4B40
:1035B8001B68D31A022B0BD93B685B78DBB201334B
:1035C800DAB23B685A70074B00221A7000E0C04616
:1035D800034BFA1D12781A70BD4602B080BDC04672
:1035E800350200200E0200203802002080B584B089
:1035F80002AF786080235B00124A1900100004F0C3
:1036080095FC03001A007B6819001000FFF762FFA1
:103618008023DB000C4A1900100004F087FC03002B
:1036280018000A4A0A49142301930A4B00931423E9
:10363800FFF7D0FC03001A007B68DA70C046BD466D
:1036480002B080BD00040050000800502202002093
:10365800200200202402002080B584B000AF0200C0
:10366800FB1D1A7002F02CFD0300FB6006E002F05F
:1036780027FD0200FB68D31A642B32D81C4B1B7839
:103688001A0040231340F2D1194B40221A70194BEB
:10369800FA1D12781A70184BFF221A70174B1B6804
:1036A80000225A62154B180006F0E2FA80235B00EC
:1036B80013480022190004F056FC02F001FD030033
:1036C800FB6006E002F0FCFC0200FB68D31A642BE6
:1036D80009D80A4B1B68DB6801221340012BF1D083
:1036E80002E0C04600E0C046BD4604B080BDC0460A
:1036F8003E0200203C0200203D020020E40500209C
:103708000004005090B585B000AF786039600F2391
:10371800FB1800221A700DE00F243B191B787A68F9
:10372800D3181B781800FFF797FF3B191A783B1935
:1037380001321A700F23FB181B783A689A42EBD8AB
:10374800C046C046BD4605B090BD000080B500AF7C
:103758001B4B1B780133DAB2194B1A70194B1B78C3
:103768001A004023134027D0154B1B78072B11D87C
:10377800154B1B7801221340DAB280235B001348F3
:10378800190004F0F0FB104B1B785B08DAB20E4B03
:103798001A7011E080235B000C480122190004F024
:1037A800E2FB074B1B78082B06D9094B180006F0DB
:1037B800B5FA044B00221A70C046BD4680BDC0460B
:1037C8003D0200203E0200203C0200200004005080
:1037D800E405002080B582B000AF7860054B180082
:1037E80005F0A4FB7B68180002F074FCC046BD46D7
:1037F80002B080BD8805002080B588B004AF020003
:10380800FB1D1A703B1D0A1C1A803B1D1B881B0AD6
:103818009BB2DAB20C217B181A703B1D1B88DAB2F6
:103828007B185A70FB1D1B789AB2094801235B422A
:103838000293022301937B1800930123802104F053
:103848004DFD012002F046FCC046BD4604B080BDD7
:103858003405002090B589B004AF02003960FB1D23
:103868001A70FB1D1B789AB2104801235B42029321
:10387800022301930C243B1900930123802104F0B7
:103888005BFE012002F026FC21007B181B781B023E
:103898001AB27B185B781BB213431BB29AB23B680F
:1038A8001A80C046BD4605B090BDC046340500200C
:1038B80080B582B000AF0F4B802292011A600E4B88
:1038C80014221A600D4B01221A600A4B1B689BB226
:1038D80019000520FFF790FFBB1DA022FF321A80B8
:1038E800BB1D1B8819000020FFF786FFC046BD4698
:1038F80002B080BD4802002040020020440200209F
:1039080080B582B000AFBB1D19000220FFF7A2FFEF
:10391800BB1D1B88DB089BB29B009BB21BB2180027
:10392800BD4602B080BD000080B582B000AF094B33
:103938001B689BB219000520FFF75EFFBB1D19002D
:103948000420FFF787FFBB1D1B881BB21800BD466C
:1039580002B080BD4802002080B582B000AF094B9C
:103968001B689BB219000520FFF746FFBB1D190015
:103978000320FFF76FFFBB1D1B881BB21800BD4655
:1039880002B080BD4802002090B583B000AFBC1DD6
:10399800FFF7B6FF03002380BB1D00229B5E1800C3
:1039A800FEF7C2FE074A084BFEF76CF802000B0050
:1039B80010001900FEF756FF031C181CBD4603B083
:1039C80090BDC046FCA9F1D24D62503F80B582B08F
:1039D80000AFFFF7A9FF03001800FDF785F8031CE7
:1039E8007B60084B1B681800FDF7CCF8031C191CFA
:1039F8007868FCF78BFD031C7B607B68181CBD4650
:103A080002B080BD4002002080B582B000AFFFF751
:103A1800A3FF03001800FDF767F8031C7B60084B41
:103A28001B681800FDF7AEF8031C191C7868FCF732
:103A380035FF031C7B607B68181CBD4602B080BD47
:103A48004402002080B582B000AF0200FB1D1A704E
:103A5800FB1D1B78002B06D0084B012240211800C3
:103A680004F081FA05E0054B00224021180004F01B
:103A78007AFAC046BD4602B080BDC0460004005078
:103A880080B582B000AF78607B681A68144B1B68F9
:103A98009A4206D1134B1B68002B02D0114B1B68AE
:103AA80098477B681A68104B1B689A4206D10F4BDF
:103AB8001B68002B02D00D4B1B6898477B681A685F
:103AC8000B4B1B689A4206D10A4B1B68002B02D08D
:103AD800084B1B689847C046BD4602B080BDC0462B
:103AE8007C0600205002002010070020540200200D
:103AF800380800205802002080B582B000AF7860F6
:103B0800C046BD4602B080BD80B582B000AF7860C7
:103B18007B681A680B4B1B689A4201D1FFF716FEA7
:103B28007B681A68084B1B689A4206D1074B1B68CA
:103B3800002B02D0054B1B689847C046BD4602B013
:103B480080BDC046E40500203006002000000020AB
:103B580080B500AF044B1B68002B02D0024B1B68DA
:103B68009847C046BD4680BD4C02002080B582B053
:103B780000AF0200BB1D1A80BB1D1B88180002F095
:103B8800A9FAC046BD4602B080BDB0B586B002AF46
:103B9800786008001100FB1C021C1A70BB1C0A1C70
:103BA8001A700F203B18FA1C12780F218A431A70DA
:103BB800FB1C1B781A010E243B191A707B68DB7AF0
:103BC800002B0BD03B183A18127808210A431A70B8
:103BD8003B193A19127808210A431A70BB1C1B7842
:103BE800012B0ED10F22BB18BA18127801210A43F3
:103BF8001A700E22BB18BA18127801210A431A70DB
:103C080011E0BB1C1B78002B0DD10F22BB18BA1872
:103C1800127801218A431A700E22BB18BA1812783A
:103C280001218A431A700F257B191B78042213433C
:103C3800DAB208243B191A700120FFF797FF210018
:103C48007B187A1912785A700E257B191B78042272
:103C58001343DAB20C003B199A700120FFF786FF74
:103C68003B197A191278DA707B6818687B681B79B7
:103C780099B23A19FA239B000093042304F026FA18
:103C8800C046BD4604B0B0BD80B584B000AFF86092
:103C9800B9601900FB1D1A70BB1D0A1C1A70FB685D
:103CA800BA681A60FB68FA1D12781A71FB68BA1DA7
:103CB80012785A71FA681823FB181B789371FB68FD
:103CC80028229A72FB680622DA71FB680C221A72A3
:103CD800FB6814225A72FB680822DA72C820FFF7C0
:103CE80045FFFB68002233211800FFF74EFF142020
:103CF800FFF73CFFFB68002233211800FFF745FF60
:103D08001420FFF733FFFB68002232211800FFF769
:103D18003CFF1420FFF72AFFFB680022202118002F
:103D2800FFF733FF1420FFF721FFFB68D979FB6801
:103D380000221800FFF729FFFB68197AFB680022A8
:103D48001800FFF722FFFB68597AFB680022180069
:103D5800FFF71BFFFB68997AFB6800221800FFF742
:103D680014FFFB68002201211800FFF70EFFFB6813
:103D7800002202211800FFF708FFC046BD4604B024
:103D880080BD80B584B000AF786008001100FB1CCE
:103D9800021C1A70BB1C0A1C1A700F23FB18002285
:103DA8001A707B685B79FA1C12789A4204D37B6894
:103DB8005A79FB1C013A1A707B689B79BA1C1278F5
:103DC8009A4204D37B689A79BB1C013A1A70BB1CCF
:103DD8001B78002B05D10F23FB18FA1C12781A70D8
:103DE8001FE0BB1C1B78012B06D10F23FB18FA1C04
:103DF800127840321A7014E0BB1C1B78022B06D1D3
:103E08000F23FB18FA1C127814321A7009E0BB1C35
:103E18001B78032B05D10F23FB18FA1C1278543298
:103E28001A700F23FB181B78802252421343D9B211
:103E38007B6800221800FFF7A8FEC046BD4604B004
:103E480080BD80B582B000AF78600A00FB1C1A7094
:103E5800FB1C19787B6801221800FFF796FEC04604
:103E6800BD4602B080BD80B582B000AF78603960D1
:103E780008E03B685A1C3A601A787B681100180001
:103E8800FFF7DFFF3B681B78002BF2D1C046C04626
:103E9800BD4602B080BD0000B0B588B000AF786004
:103EA80008001100FB1C021C1A70BB1C0A1C1A70AB
:103EB800BB1C1B78012B42D81F23FB1800221A7049
:103EC80021E01F257B191C787B681800FCF714F982
:103ED80003009C420AD27B191B787A68D2187B1996
:103EE8001B7811780C22BA18D15406E01F23FB184E
:103EF8001B780C22BA182021D1541F217B181A785C
:103F08007B1801321A701F23FB181B78102BD8D985
:103F1800FB1C1B781022D31A0C243A190021D15407
:103F2800BB1C1A78FB1C1978074B1800FFF729FFF0
:103F38003A19054B11001800FFF795FF00E0C0463D
:103F4800BD4608B0B0BDC0465C02002080B500AFD9
:103F5800BFF34F8FC046044B044ADA60BFF34F8F5C
:103F6800C046C046FDE7C04600ED00E00400FA0583
:103F780080B582B000AF7A4B1A8EC8235B009A4294
:103F88000BD2774B322200219954764A764B110096
:103F9800180008F05FFD0423DEE0714B1A8EC82379
:103FA8005B009A4216D96E4B1B8E704A934211D809
:103FB8006B4B3222012199546D4A6B4B110018004A
:103FC80008F048FD3B1DC82252001A80BB1D694AF3
:103FD8001A8085E0624B1B8E644A934216D9604B67
:103FE8001A8EFA23DB009A4210D85D4B3222022146
:103FF8009954614A5C4B1100180008F02BFD3B1DD9
:10400800D2221A80BB1D594A1A8069E0544B1A8E75
:10401800FA23DB009A4218D9514B1A8EAF231B01A1
:104028009A4212D84E4B322203219954534A4E4B8E
:104038001100180008F00EFD3B1D962252001A8050
:10404800BB1DAF2292001A804AE0454B1A8EAF235F
:104058001B019A4217D9424B1B8E494A934212D8E8
:104068003F4B322204219954464A3F4B1100180015
:1040780008F0F0FC3B1DC82252001A80BB1D962296
:1040880092001A802CE0364B1B8E3D4A934216D97B
:10409800334B1B8E3C4A934211D8314B32220521B7
:1040A80099543A4A304B1100180008F0D3FC3B1DD4
:1040B800FA2252001A80BB1DC8221A8010E0284B31
:1040C8001B8E314A93420BD9254B32220621995433
:1040D8002F4A254B1100180008F0BCFC04233BE0D4
:1040E8002C4B5B889BB2002B01D1002334E0294B79
:1040F8005B889BB2632B08D9264B5B889AB2C32393
:104108009B009A4201D8012326E0224B5B889AB291
:10411800C3239B009A420BD91E4B5B889BB21900A4
:10412800BB1D1B881C4AD31A994201DC022313E0E9
:10413800184B5B889BB21900BB1D1B88164AD31A03
:10414800994208DB134B5B889AB2FA231B019A4207
:1041580001D8032300E004231800BD4602B080BD47
:1041680098030020C0EE0008340400201405000065
:10417800CCEE0008DC050000D8EE0008E4EE0008EC
:10418800B80B0000F0EE0008AC0D0000FCEE0008D3
:1041980008EF000840030020D80E0000B0B584B036
:1041A80002AF3E4B1800FEF7B1FF031E6FD03B4B2A
:1041B800FA211800FEF780FF394B5B78002B06D1F7
:1041C800384A394B1100180008F044FC26E0344BFB
:1041D8005B78012B08D1354B5B889BB2344A354953
:1041E800314808F037FC19E02D4B5B78022B15D1CC
:1041F8002B4B9B6A181CFEF7EDFA04000D00284BA8
:104208005B6A181CFEF7E6FA02000B002A492648EA
:104218000092019322002B0008F01CFC2749284B30
:104228001122180007F094FE0200FB1D1A702549A0
:104238001D4B1122180007F08BFE0200BB1D1A70DF
:10424800FB1D1B78002B03D1BB1D1B78002B20D036
:104258001B4B002200211800FFF71EFE124B012203
:1042680000211800FFF718FE14490D4B0222080020
:104278009B181122190007F079FE1249084B1322E6
:1042880008009B181122190007F070FE02E0C046D2
:1042980000E0C046BD4602B0B0BDC04620040020C4
:1042A8009803002014EF0008AB030020400300200F
:1042B8003404002028EF000830EF00084C040020E8
:1042C8009A0300206004002080B500AF0E4B180050
:1042D800FEF71CFF031E13D00B4B1800FEF704FF5C
:1042E800FFF774FB021C094B5A62FFF74DFB021CD7
:1042F800064B9A62FFF788FB021C044BDA6200E067
:10430800C046BD4680BDC04610040020980300206A
:1043180080B500AFC046BD4680BD000080B584B002
:1043280002AF0200FB1D1A70FB1D1B78002B09D180
:10433800C8235B000A4800220092C8220A21FEF71F
:10434800D7FC08E00749084A0548002300930B00FA
:104358000A21FEF7CDFCC046BD4602B080BDC0466E
:1043680068020020AC0D0000B80B000080B584B0D6
:1043780002AF0200FB1D1A70FB1D1B78002B0BD12E
:104388000E4801230093C82364220121FEF7B0FCE4
:104398000B4B06221A700CE09623DB00FA229200DF
:1043A8000648002100910121FEF7A2FC044B0622D9
:1043B8001A70C046BD4602B080BDC046EC0200205F
:1043C8009803002080B584B002AF3A60BB1D021C80
:1043D8001A807B1D0A1C1A707B1D1B78022B0BD0C0
:1043E8002CDC002B02D0012B2AD027E03B001B78C5
:1043F800032B27D1FFF7AAFD3B68FA22910018008A
:10440800FBF71CFF0B1E07D1124800230093C8239B
:1044180064220121FEF76CFC3B680F4A934213D1DA
:104428000E4B5B780133DAB20C4B5A700B4B5B784E
:10443800022B09D9094B00225A7005E0C04604E056
:10444800C04602E0C04600E0C046C046BD4602B0D5
:1044580080BDC046EC0200208813000098030020AD
:1044680080B584B002AF434B180002F001FF031E71
:1044780001D001F047F940493E4B0422180002F0F0
:104488006FF9031E01D001F03DF9FB1D00221A70DF
:1044980011E0FB1D1A7813009B009B189B00374AFC
:1044A8009818374B374A3849FEF7C0FBFB1D1A7876
:1044B800FB1D01321A70FB1D1B78032BE9D9FFF78E
:1044C800F7F9324B180003F06BFD304930480423EC
:1044D800009314234E22FFF7D7FB2E4B180005F04C
:1044E800C7FB2D4B180005F0C3FB2C4B2C4A9A60D8
:1044F8002C4B2D4ADA602D492D4B00221800FEF76F
:10450800B1FBC8235B002B4800220092C82201217E
:10451800FEF7EEFB284B04220121180007F02FFDBF
:10452800264B32211800FEF7C7FDFA23DA00244B88
:1045380011001800FEF7C0FD224B14211800FEF7E9
:10454800BBFD214B002200211800FFF7A5FC1F4BE3
:10455800012200211800FFF79FFC1D4B00221A7052
:104568001B4B00221A861A4B00225A70C046BD46C1
:1045780002B080BD740400204003002048030020DE
:1045880000207D450000A0410AD7233C34050020C7
:104598005C02002030060020E40500200002002014
:1045A8002543000818030020CD4300084D3A0008B1
:1045B800C0020020EC020020CC03002010040020E0
:1045C80020040020D003002044EF000850EF00082A
:1045D8009803002080B582B000AF224B1B78002BD7
:1045E80002D1204B01221A701F4B1800FEF7FEFF64
:1045F800FB1D00221A700DE0FB1D1B782C225A436C
:104608001A4BD3181800FEF7C9FBFB1D1A78FB1DBF
:1046180001321A70FB1D1B78032BEDD9144B1B7844
:104628000133DAB2124B1A70114B1B78092B15D9CA
:104638000F4B00221A70FEF731FD8023DB010D4A73
:104648001900100003F072FC03005A425341DBB218
:104658001A00094B11001800FEF7AAF9C046BD461A
:1046680002B080BD30040020000200206802002053
:1046780071040020000400501803002080B500AF2A
:10468800C74B1800FEF742FD031E00D180E2C54B60
:104698001B78022B03D0C24B1800FEF725FDFFF74D
:1046A80067FC03001900BF4B33229954BD4B1B8E86
:1046B800002B0AD1BC4B5B889AB2BA4B1A86B84B0E
:1046C80014211800FEF7F8FC69E2B64B1B78062B9C
:1046D80000D964E29A00B54BD3181B689F46B14BCA
:1046E8009B6A8121C905181CFBF7E8FE031E09D047
:1046F800AF4AB04B1100180008F0ACF9A94B0022E2
:104708001A704CE2FFF762F9021CA64B5A62A54BDD
:104718005B6A181CFEF75EF8A74AA84BFBF79EFEDB
:10472800031E06D0A64AA34B1100180008F092F900
:1047380035E29C4B5B6A181CFEF74CF89E4A9F4B6F
:10474800FBF796FE031E13D0964B5B6A9D49181C17
:10475800FBF7B4FE031E0BD0924B01221A709A4B42
:1047680000221A70FA235B001800FFF733F816E2EC
:10477800964A904B1100180008F06CF90FE2894B2B
:1047880033229B5C032B0FD1914A8A4B11001800EE
:1047980008F060F98F4A904B11001800FEF78CFC66
:1047A800804B02221A70FAE17E4B33229B5C012B6C
:1047B80012D1854B01221A70884A7E4B11001800CD
:1047C80008F048F9864A844B11001800FEF774FC7B
:1047D800744B02221A70E2E1824A764B11001800EB
:1047E80008F038F97C4B1800FEF7B6FC7E4B002227
:1047F8001A70D4E1784B1800FEF788FC031E28D005
:10480800684B33229B5C012B03D06F4B1B78012B29
:1048180006D1764A674B1100180008F01BF914E01E
:10482800604B5B6A7249181CFBF75CFE031E06D0DE
:10483800704A604B1100180008F00CF905E06E4A48
:104848005C4B1100180008F005F90020FFF78EFDF9
:10485800A5E1544B33229B5C012B00D19AE15A4BC2
:1048680000221A70FFF7B2F8021C4E4B5A625E4BD8
:104878001B7801221340DBB2002B1DD1494B5B6A28
:10488800181CFDF7A7FF4C4A5C4BFBF7FBFD031E0A
:1048980012D0444B5B6A5A49181CFBF719FE031ED9
:1048A8000AD0514B1B780133DAB24F4B1A703D4B8B
:1048B8005A6A544B1A6020E04B4B1B780122134074
:1048C800DBB2002B19D0374B5B6A4F49181CFBF73A
:1048D80013FE031E11D0334B5B6A4C49181CFBF7BF
:1048E800F7FD031E09D0404B1B780133DAB23E4B6B
:1048F8001A702C4B5A6A464B1A603B4B1B78022B9A
:1049080000D849E13F4B1B68181CFDF763FF2A4A92
:104918003A4BFBF7B7FD031E0FD03A4B1B68FF213C
:104928008905181CFBF7D4FD031E06D0394A214B14
:104938001100180008F08EF81DE0324B1B68812129
:10494800C905181CFBF7D8FD031E0ED02D4B1B689C
:104958002B49181CFBF7BCFD031E06D02E4A154B2D
:104968001100180008F076F805E02C4A114B1100E8
:10497800180008F06FF82A4B60211800FEF74AFC6F
:10498800FA239A00274B11001800FEF795FB044BF9
:104998001800FEF7A9FB034B03221A70FFE0C0467C
:1049A800D0030020980300204003002040F20008B4
:1049B80060EF00089A0300209A9999999999D93F2C
:1049C80074EF0008000048424104002088EF000806
:1049D8009CEF0008B80B0000E0030020ACEF0008D3
:1049E800C4090000C0EF000842040020D4EF00080A
:1049F8000000F041E8EF0008FCEF00089999E93F52
:104A08000000C04044040020000020410000A041F4
:104A18004804002010F0000820F0000830F00008DA
:104A280000020020F00300205E4B1800FEF76EFB2A
:104A3800031E00D1B2E05B4B1800FEF78DFB5A4B0A
:104A48009B78DBB2012B09D1584A594B1100180049
:104A580008F000F8574B04221A709FE0524B9B78DD
:104A6800DBB2002B00D099E0534A514B11001800DB
:104A780007F0F0FF0020FFF779FC8FE04D4B332261
:104A88009B5C012B1BD1484BDB78DBB2002B0FD191
:104A98004A4A474B1100180007F0DCFF454B052236
:104AA8001A70474A474B11001800FEF705FB76E0DD
:104AB800454A3F4B1100180007F0CCFF05E0434A78
:104AC8003B4B1100180007F0C5FF0020FFF74EFC14
:104AD80065E0384B33229B5C032B1CD1324BDB78CF
:104AE800DBB2002B09D03A4A314B1100180007F00D
:104AF800B1FF0120FFF73AFC51E0364A2C4B110078
:104B0800180007F0A7FF2F4B1800FEF725FB002021
:104B1800FFF72CFC43E02B4B1800FEF7F7FA031EB7
:104B28000DD02D4A224B1100180007F093FF254B9A
:104B38001800FEF711FB0020FFF718FC2FE0FEF726
:104B480045FF021C1B4B5A621A4B5B6A181CFDF787
:104B580041FE224A224BFBF781FC031E00D11EE0D6
:104B6800144B00221A701F4B00211800FEF78AF818
:104B78001D4B1800FEF7F0FA0A4B1800FEF7ECFA86
:104B8800104B1800FEF7E8FA184B00221A7006E0DE
:104B9800C04604E0C04602E0C04600E0C046BD464C
:104BA80080BDC046F00300200002002040F000084D
:104BB8009A0300209803002050F0000864F00008D1
:104BC800E40C00000004002074F0000884F00008E1
:104BD80098F00008A8F00008B8F000089A99999988
:104BE8009999D93FEC020020E003002042040020FC
:104BF80080B500AFFFF7D2FAFFF766FBFFF788FB37
:104C0800044B1800FEF72EFBFFF738FDC046BD46E3
:104C180080BDC0460002002080B500AF01F0D4F985
:104C280000F028F800F0D8FB00F0B8FB00F080F89E
:104C380000F07EF900F038FA00F0FAFA00F046FBCE
:104C480000F078FB00F054F900F0A4FA00F010F935
:104C580000F064FAFFF704FC054B180004F014F99F
:104C6800034B180004F062F9FFF7C2FFF8E7C046EB
:104C78008805002090B593B000AF14243B191800A4
:104C880034231A00002107F07AF93B1D180010237D
:104C98001A00002107F073F980239B00180004F024
:104CA80055F93B190A221A603B1980225200DA6032
:104CB80021007B1800221A617B1840225A617B1858
:104CC80001229A617B180222DA617B1802221A6299
:104CD8007B1800225A627B1808229A627B1880226D
:104CE8009202DA627B18802292051A637B181800F8
:104CF80004F078F9031E01D000F004FD3B1D0722E3
:104D08001A603B1D02225A603B1D00229A603B1D1F
:104D18000022DA603B1D0221180004F073FC031E18
:104D280001D000F0EFFCC046BD4613B090BD0000B6
:104D380080B584B000AF3B1D18000C231A00002179
:104D480007F01DF9444B454A1A60434B8022120371
:104D58005A60414B00229A603F4B0022DA603E4B7A
:104D6800802292031A613C4B04225A613A4B00227A
:104D78001A76394B00225A76374B01229A76364BEF
:104D88000422DA61344B00225A62334B00229A62C1
:104D9800314B2C22012199542F4B00221A632E4BA0
:104DA80007225A632C4B07229A632B4B3C22002183
:104DB8009954294B0022DA64274B180001F028FB8C
:104DC800031E01D000F09EFC3B1D254A1A603B1DC6
:104DD80000225A603B1D00229A603A1D1E4B1100AA
:104DE800180001F07BFE031E01D000F08BFC3B1D78
:104DF8001C4A1A603B1D04225A603A1D164B1100CA
:104E0800180001F06BFE031E01D000F07BFC3B1D77
:104E1800154A1A603B1D08225A603A1D0E4B1100B4
:104E2800180001F05BFE031E01D000F06BFC3B1D77
:104E38000E4A1A603B1D0C225A603A1D064B11009F
:104E4800180001F04BFE031E01D000F05BFCC046C9
:104E5800BD4604B080BDC046740400200024014053
:104E6800040000080800000C1000001020000014C6
:104E780080B500AF1B4B1C4A1A601A4B1B4A5A607C
:104E8800184B00229A60174B0122DA60154B00225A
:104E98001A61144B00225A61124B00229A61114B7D
:104EA8000022DA610F4B00221A620E4B180003F041
:104EB80077F8031E01D000F025FC0A4B00211800EA
:104EC80003F04AFF031E01D000F01CFC054B002133
:104ED800180003F08DFF031E01D000F013FCC0463C
:104EE800BD4680BD3405002000580040BC7D7010D0
:104EF80080B500AF0B4B0C4A1A600A4B03225A606C
:104F0800084B0A4ADA60074B084A9A60054B1800B2
:104F180003F0BAFF031E01D000F0F4FBC046BD4603
:104F280080BDC0468805002000300040FF0F00000B
:104F380080B58EB000AF2823FB18180010231A0084
:104F4800002107F01CF81C23FB1818000C231A007A
:104F5800002107F014F83B0018001C231A00002158
:104F680007F00DF84C4B4D4A1A604B4B05225A601E
:104F7800494B00229A60484B494ADA60464B002266
:104F88001A61454B80229A61434B180004F018FEC1
:104F9800031E01D000F0B6FB28217B1880225201A5
:104FA8001A607A183C4B1100180005F077F9031EB7
:104FB80001D000F0A7FB384B180004F0DDFE031EFB
:104FC80001D000F09FFB1C217B1800221A607B187F
:104FD80000229A607A18304B1100180005F02AFE5A
:104FE800031E01D000F08EFB3B0060221A603B00DC
:104FF80000225A603B0002229A603B0004221A6198
:105008003900254B0022180005F048F8031E01D08E
:1050180000F078FB204B1B689A691F4B1B6808211E
:105028008A439A6139001C4B0422180005F036F8AF
:10503800031E01D000F066FB174B1B689A69164BDC
:105048001B6818490A409A613900134B0822180056
:1050580005F024F8031E01D000F054FB0E4B1B682A
:10506800DA690D4B1B6808218A43DA613B0000228C
:105078001A613900084B0C22180005F00FF8031EBE
:1050880001D000F03FFB044B180000F09DFCC04627
:10509800BD460EB080BDC046980500200004004003
:1050A80070940000FFF7FFFF80B584B000AF3B1D90
:1050B80018000C231A00002106F061FF154B164A50
:1050C8001A60144B40225A60124B00229A60114B0E
:1050D8006822DA600F4B00229A610E4B180004F028
:1050E8006FFD031E01D000F00DFB3B1D00221A606E
:1050F8003B1D00229A603A1D064B1100180005F06E
:1051080099FD031E01D000F0FDFAC046BD4604B06B
:1051180080BDC046E40500200010004080B584B082
:1051280000AF3B1D18000C231A00002106F027FFD2
:10513800154B164A1A60144B40225A60124B002233
:105148009A60114B124ADA600F4B80229A610E4B1B
:10515800180004F035FD031E01D000F0D3FA3B1D02
:1051680000221A603B1D00229A603A1D064B11006E
:10517800180005F05FFD031E01D000F0C3FAC04619
:10518800BD4604B080BDC046300600200014004073
:10519800E703000080B500AF234B244A1A60224B76
:1051A800E12252025A60204B00229A601E4B0022D4
:1051B800DA601D4B00221A611B4B0C225A611A4BF4
:1051C80000229A61184B0022DA61174B00221A62FA
:1051D800154B00225A62144B00229A62124B180097
:1051E80005F0A8FD031E01D000F08CFA0E4B00213B
:1051F800180006F099FD031E01D000F083FA0A4B4F
:105208000021180006F0D0FD031E01D000F07AFA44
:10521800054B180006F04EFD031E01D000F072FA8F
:10522800C046BD4680BDC0467C060020003801400F
:1052380080B500AF234B244A1A60224B9622920174
:105248005A60204B00229A601E4B0022DA601D4BE8
:1052580000221A611B4B0C225A611A4B00229A61D8
:10526800184B0022DA61174B00221A62154B0022F4
:105278005A62144B00229A62124B180005F05AFD2C
:10528800031E01D000F03EFA0E4B0021180006F074
:105298004BFD031E01D000F035FA0A4B002118001F
:1052A80006F082FD031E01D000F02CFA054B180011
:1052B80006F000FD031E01D000F024FAC046BD46EA
:1052C80080BDC046100700200044004080B500AFF4
:1052D800164B174A1A60154B962292015A60134BC7
:1052E80000229A60114B0022DA60104B00221A61EA
:1052F8000E4B0C225A610D4B00229A610B4B002277
:10530800DA610A4B00221A62084B00225A62074BE4
:1053180000229A62054B180005F00CFD031E01D00F
:1053280000F0F0F9C046BD4680BDC046A407002085
:105338000048004080B500AF164B174A1A60154B5D
:10534800962292015A60134B00229A60114B002258
:10535800DA60104B00221A610E4B0C225A610D4B79
:1053680000229A610B4B0022DA610A4B00221A6272
:10537800084B00225A62074B00229A62054B18001C
:1053880005F0D8FC031E01D000F0BCF9C046BD46AC
:1053980080BDC04638080020004C004080B582B06F
:1053A80000AF0C4B9A6B0B4B01210A439A63094BD4
:1053B8009B6B012213407B607B680022002109203F
:1053C80002F0F8F8092002F00AF9C046BD4602B01A
:1053D80080BDC0460010024090B58BB000AF1424C9
:1053E8003B19180014231A00002106F0C8FDBC4B15
:1053F8005A6BBB4B04210A435A63B94B5B6B0422BB
:1054080013403B613B69B64B5A6BB54B01210A43CC
:105418005A63B34B5B6B01221340FB60FB68B04BD4
:105428005A6BAF4B02210A435A63AD4B5B6B0222A6
:105438001340BB60BB68AA4B5A6BA94B08210A43AF
:105448005A63A74B5B6B082213407B607B689023F1
:105458001B02A4480122190002F085FDA249A14BB4
:105468000022180002F07FFDB823D900A023DB0535
:105478000022180002F077FD9C499D4B002218007D
:1054880002F071FD9B4B00220121180002F06BFD18
:10549800984B01221A21180002F065FD80235B0059
:1054A80093480122190002F05EFD3B19B2229201D5
:1054B8001A603B1900225A603B1901229A603B1975
:1054C800884A1900100002F0CDFB21007B188022C9
:1054D80052011A600C003B1901225A603B19012243
:1054E8009A603B190122DA603B197E4A19001000C4
:1054F80002F0B8FB3B19804A1A603B1901225A6036
:105508003B1900229A603B190022DA603B19754A60
:105518001900100002F0A6FB21007B18802212025D
:105528001A600C003B1901225A603B1901229A604B
:105538003B190022DA603B196A4A1900100002F090
:1055480091FB3B1904221A603B1901225A603B194E
:1055580002229A603B190022DA603B19614A19005D
:10556800100002F07FFB21007B18B822D2001A60DD
:105578000C003B1901225A603B1902229A603B1920
:105588000022DA603A19A023DB051100180002F0A6
:1055980069FB3B19594A1A603B1901225A603B19A9
:1055A80002229A603B190022DA603B19504A19001E
:1055B800100002F057FB21007B18802292011A602C
:1055C8000C003B1901225A603B1901229A603B19D1
:1055D8000322DA603B19464A1900100002F042FB28
:1055E8003B19474A1A603B1900225A603B190122AD
:1055F8009A603B193E4A1900100002F033FB3B1930
:10560800802292001A603B1900225A603B1901223D
:105618009A603A19A023DB051100180002F022FB5A
:105628003B1940221A603B1901225A603B19022299
:105638009A603B190222DA603B192A4A19001000C5
:1056480002F010FB3B1901221A603B1901225A6033
:105658003B1900229A603B190022DA603B19254A5F
:105668001900100002F0FEFA3B191A221A603B19C1
:1056780001225A603B1901229A603B190022DA6024
:105688003B191C4A1900100002F0ECFA3B190822D9
:105698001A603B1901225A603B1900229A603B1993
:1056A8000022DA603B19124A1900100002F0DAFAF7
:1056B80021007B18802252001A607B1801225A6050
:1056C8007B1801229A607B180122DA607B18084A4D
:1056D8001900100002F0C6FAC046BD460BB090BDD6
:1056E80000100240000800504E4000004F3C0000EF
:1056F80000040050000C00500A400000471C000045
:1057080080C2000080B500AF72B6C046FEE7000058
:1057180080B582B000AF114B1A6C104B01210A43BF
:105728001A640E4B1B6C012213407B607B680B4B89
:10573800DA6B0A4B802149050A43DA63074BDA6BB7
:1057480080235B0513403B603B68C023DB001800E7
:1057580000F0E4FCC046BD4602B080BD0010024027
:1057680090B591B000AF78602C23FB181800142373
:105778001A00002106F003FC10243B1918001C2312
:105788001A00002106F0FBFB7B681B68394A93422C
:105798006CD13B198022D2011A603B1900225A6150
:1057A8003B19180004F0D8F8031E01D0FFF7AAFF30
:1057B800314B1A6C304B802149030A431A642E4B33
:1057C8001A6C80235B031340FB60FB682A4B5A6BFF
:1057D800294B01210A435A63274B5B6B0122134073
:1057E800BB60BB682C217B183C221A607B18032203
:1057F8005A607B1800229A607A18A023DB051100F2
:10580800180002F02FFA1D4B1D4A1A601B4B052287
:105818005A601A4B00229A60184B0022DA60174B24
:1058280080221A61154B802252005A61134B802244
:10583800D2009A61114B2022DA61104B00221A62C1
:105848000E4B180001F0F0FE031E01D0FFF75AFFBF
:105858007B680A4A1A65094B7A689A620022002115
:105868000C2001F0A7FE0C2001F0B9FEC046BD4691
:1058780011B090BD0024014000100240D80400205F
:105888000800024090B58BB000AF786014243B1933
:10589800180014231A00002106F071FB7B681B68AE
:1058A8001C4A934231D11C4B5A6B1B4B01210A43B2
:1058B8005A63194B5B6B012213403B613B693B19EF
:1058C800C02252011A6021007B1812225A607B18EC
:1058D80001229A607B180022DA607B1806221A617E
:1058E8007A18A023DB051100180002F0BBF90A4B57
:1058F800DA6B094B8021C9030A43DA63064BDA6B7A
:105908008023DB031340FB60FB68C046BD460BB039
:1059180090BDC046005800400010024080B586B0D7
:1059280000AF78607B681B68234A93420CD1234BF5
:10593800DA6B224B02210A43DA63204BDB6B02222B
:1059480013407B617B6932E07B681B681C4A934289
:1059580014D11A4BDA6B194B10210A43DA63174B2F
:10596800DB6B102213403B613B69002201211120AF
:1059780001F020FE112001F032FE18E07B681B6860
:10598800104A934213D10D4BDA6B0C4B20210A437A
:10599800DA630A4BDB6B20221340FB60FB680022B2
:1059A8000021122001F006FE122001F018FEC04668
:1059B800BD4606B080BDC04600040040001002404D
:1059C800001000400014004090B58BB000AF786024
:1059D80014243B19180014231A00002106F0CFFAEA
:1059E8007B681B68254A934243D1254B5A6B244B4D
:1059F80004210A435A63224B5B6B042213403B6128
:105A08003B691F4B5A6B1E4B02210A435A631C4BBE
:105A18005B6B02221340FB60FB683B19C0229200BB
:105A28001A603B1902225A603B1900229A603B19FE
:105A38000022DA603B1901221A613B19114A190048
:105A4800100002F00FF921007B1830221A607B1831
:105A580002225A607B1800229A607B180022DA60C2
:105A68007B1801221A617B18074A1900100002F0FE
:105A7800F9F8C046BD460BB090BDC04600040040D2
:105A880000100240000800500004005090B597B084
:105A980000AF78604423FB18180014231A00002173
:105AA80006F06DFA28243B1918001C231A0000215F
:105AB80006F065FA7B681B688B4A934246D13B190E
:105AC80001221A603B1900225A603B19180003F0A2
